{
  "contractName": "FYTE",
  "abi": [
    {
      "inputs": [
        {
          "internalType": "string",
          "name": "name",
          "type": "string"
        },
        {
          "internalType": "string",
          "name": "symbol",
          "type": "string"
        },
        {
          "internalType": "address[]",
          "name": "payees",
          "type": "address[]"
        },
        {
          "internalType": "uint256[]",
          "name": "shares",
          "type": "uint256[]"
        }
      ],
      "stateMutability": "nonpayable",
      "type": "constructor"
    },
    {
      "anonymous": false,
      "inputs": [
        {
          "indexed": true,
          "internalType": "address",
          "name": "owner",
          "type": "address"
        },
        {
          "indexed": true,
          "internalType": "address",
          "name": "spender",
          "type": "address"
        },
        {
          "indexed": false,
          "internalType": "uint256",
          "name": "value",
          "type": "uint256"
        }
      ],
      "name": "Approval",
      "type": "event"
    },
    {
      "anonymous": false,
      "inputs": [
        {
          "indexed": true,
          "internalType": "contract IERC20",
          "name": "token",
          "type": "address"
        },
        {
          "indexed": false,
          "internalType": "address",
          "name": "to",
          "type": "address"
        },
        {
          "indexed": false,
          "internalType": "uint256",
          "name": "amount",
          "type": "uint256"
        }
      ],
      "name": "ERC20PaymentReleased",
      "type": "event"
    },
    {
      "anonymous": false,
      "inputs": [
        {
          "indexed": true,
          "internalType": "address",
          "name": "previousOwner",
          "type": "address"
        },
        {
          "indexed": true,
          "internalType": "address",
          "name": "newOwner",
          "type": "address"
        }
      ],
      "name": "OwnershipTransferred",
      "type": "event"
    },
    {
      "anonymous": false,
      "inputs": [
        {
          "indexed": false,
          "internalType": "address",
          "name": "account",
          "type": "address"
        },
        {
          "indexed": false,
          "internalType": "uint256",
          "name": "shares",
          "type": "uint256"
        }
      ],
      "name": "PayeeAdded",
      "type": "event"
    },
    {
      "anonymous": false,
      "inputs": [
        {
          "indexed": false,
          "internalType": "address",
          "name": "from",
          "type": "address"
        },
        {
          "indexed": false,
          "internalType": "uint256",
          "name": "amount",
          "type": "uint256"
        }
      ],
      "name": "PaymentReceived",
      "type": "event"
    },
    {
      "anonymous": false,
      "inputs": [
        {
          "indexed": false,
          "internalType": "address",
          "name": "to",
          "type": "address"
        },
        {
          "indexed": false,
          "internalType": "uint256",
          "name": "amount",
          "type": "uint256"
        }
      ],
      "name": "PaymentReleased",
      "type": "event"
    },
    {
      "anonymous": false,
      "inputs": [
        {
          "indexed": true,
          "internalType": "address",
          "name": "from",
          "type": "address"
        },
        {
          "indexed": true,
          "internalType": "address",
          "name": "to",
          "type": "address"
        },
        {
          "indexed": false,
          "internalType": "uint256",
          "name": "value",
          "type": "uint256"
        }
      ],
      "name": "Transfer",
      "type": "event"
    },
    {
      "inputs": [],
      "name": "FYTECost",
      "outputs": [
        {
          "internalType": "uint256",
          "name": "",
          "type": "uint256"
        }
      ],
      "stateMutability": "view",
      "type": "function",
      "constant": true
    },
    {
      "inputs": [],
      "name": "V1Address",
      "outputs": [
        {
          "internalType": "address",
          "name": "",
          "type": "address"
        }
      ],
      "stateMutability": "view",
      "type": "function",
      "constant": true
    },
    {
      "inputs": [],
      "name": "V1ClaimAmount",
      "outputs": [
        {
          "internalType": "uint256",
          "name": "",
          "type": "uint256"
        }
      ],
      "stateMutability": "view",
      "type": "function",
      "constant": true
    },
    {
      "inputs": [],
      "name": "V2Address",
      "outputs": [
        {
          "internalType": "address",
          "name": "",
          "type": "address"
        }
      ],
      "stateMutability": "view",
      "type": "function",
      "constant": true
    },
    {
      "inputs": [],
      "name": "V2ClaimAmount",
      "outputs": [
        {
          "internalType": "uint256",
          "name": "",
          "type": "uint256"
        }
      ],
      "stateMutability": "view",
      "type": "function",
      "constant": true
    },
    {
      "inputs": [
        {
          "internalType": "address",
          "name": "owner",
          "type": "address"
        },
        {
          "internalType": "address",
          "name": "spender",
          "type": "address"
        }
      ],
      "name": "allowance",
      "outputs": [
        {
          "internalType": "uint256",
          "name": "",
          "type": "uint256"
        }
      ],
      "stateMutability": "view",
      "type": "function",
      "constant": true
    },
    {
      "inputs": [
        {
          "internalType": "address",
          "name": "spender",
          "type": "address"
        },
        {
          "internalType": "uint256",
          "name": "amount",
          "type": "uint256"
        }
      ],
      "name": "approve",
      "outputs": [
        {
          "internalType": "bool",
          "name": "",
          "type": "bool"
        }
      ],
      "stateMutability": "nonpayable",
      "type": "function"
    },
    {
      "inputs": [
        {
          "internalType": "address",
          "name": "account",
          "type": "address"
        }
      ],
      "name": "balanceOf",
      "outputs": [
        {
          "internalType": "uint256",
          "name": "",
          "type": "uint256"
        }
      ],
      "stateMutability": "view",
      "type": "function",
      "constant": true
    },
    {
      "inputs": [],
      "name": "decimals",
      "outputs": [
        {
          "internalType": "uint8",
          "name": "",
          "type": "uint8"
        }
      ],
      "stateMutability": "view",
      "type": "function",
      "constant": true
    },
    {
      "inputs": [
        {
          "internalType": "address",
          "name": "spender",
          "type": "address"
        },
        {
          "internalType": "uint256",
          "name": "subtractedValue",
          "type": "uint256"
        }
      ],
      "name": "decreaseAllowance",
      "outputs": [
        {
          "internalType": "bool",
          "name": "",
          "type": "bool"
        }
      ],
      "stateMutability": "nonpayable",
      "type": "function"
    },
    {
      "inputs": [
        {
          "internalType": "address",
          "name": "spender",
          "type": "address"
        },
        {
          "internalType": "uint256",
          "name": "addedValue",
          "type": "uint256"
        }
      ],
      "name": "increaseAllowance",
      "outputs": [
        {
          "internalType": "bool",
          "name": "",
          "type": "bool"
        }
      ],
      "stateMutability": "nonpayable",
      "type": "function"
    },
    {
      "inputs": [],
      "name": "name",
      "outputs": [
        {
          "internalType": "string",
          "name": "",
          "type": "string"
        }
      ],
      "stateMutability": "view",
      "type": "function",
      "constant": true
    },
    {
      "inputs": [],
      "name": "owner",
      "outputs": [
        {
          "internalType": "address",
          "name": "",
          "type": "address"
        }
      ],
      "stateMutability": "view",
      "type": "function",
      "constant": true
    },
    {
      "inputs": [
        {
          "internalType": "uint256",
          "name": "index",
          "type": "uint256"
        }
      ],
      "name": "payee",
      "outputs": [
        {
          "internalType": "address",
          "name": "",
          "type": "address"
        }
      ],
      "stateMutability": "view",
      "type": "function",
      "constant": true
    },
    {
      "inputs": [
        {
          "internalType": "address",
          "name": "account",
          "type": "address"
        }
      ],
      "name": "releasable",
      "outputs": [
        {
          "internalType": "uint256",
          "name": "",
          "type": "uint256"
        }
      ],
      "stateMutability": "view",
      "type": "function",
      "constant": true
    },
    {
      "inputs": [
        {
          "internalType": "contract IERC20",
          "name": "token",
          "type": "address"
        },
        {
          "internalType": "address",
          "name": "account",
          "type": "address"
        }
      ],
      "name": "releasable",
      "outputs": [
        {
          "internalType": "uint256",
          "name": "",
          "type": "uint256"
        }
      ],
      "stateMutability": "view",
      "type": "function",
      "constant": true
    },
    {
      "inputs": [
        {
          "internalType": "address payable",
          "name": "account",
          "type": "address"
        }
      ],
      "name": "release",
      "outputs": [],
      "stateMutability": "nonpayable",
      "type": "function"
    },
    {
      "inputs": [
        {
          "internalType": "contract IERC20",
          "name": "token",
          "type": "address"
        },
        {
          "internalType": "address",
          "name": "account",
          "type": "address"
        }
      ],
      "name": "release",
      "outputs": [],
      "stateMutability": "nonpayable",
      "type": "function"
    },
    {
      "inputs": [
        {
          "internalType": "contract IERC20",
          "name": "token",
          "type": "address"
        },
        {
          "internalType": "address",
          "name": "account",
          "type": "address"
        }
      ],
      "name": "released",
      "outputs": [
        {
          "internalType": "uint256",
          "name": "",
          "type": "uint256"
        }
      ],
      "stateMutability": "view",
      "type": "function",
      "constant": true
    },
    {
      "inputs": [
        {
          "internalType": "address",
          "name": "account",
          "type": "address"
        }
      ],
      "name": "released",
      "outputs": [
        {
          "internalType": "uint256",
          "name": "",
          "type": "uint256"
        }
      ],
      "stateMutability": "view",
      "type": "function",
      "constant": true
    },
    {
      "inputs": [],
      "name": "renounceOwnership",
      "outputs": [],
      "stateMutability": "nonpayable",
      "type": "function"
    },
    {
      "inputs": [
        {
          "internalType": "address",
          "name": "account",
          "type": "address"
        }
      ],
      "name": "shares",
      "outputs": [
        {
          "internalType": "uint256",
          "name": "",
          "type": "uint256"
        }
      ],
      "stateMutability": "view",
      "type": "function",
      "constant": true
    },
    {
      "inputs": [],
      "name": "symbol",
      "outputs": [
        {
          "internalType": "string",
          "name": "",
          "type": "string"
        }
      ],
      "stateMutability": "view",
      "type": "function",
      "constant": true
    },
    {
      "inputs": [
        {
          "internalType": "contract IERC20",
          "name": "token",
          "type": "address"
        }
      ],
      "name": "totalReleased",
      "outputs": [
        {
          "internalType": "uint256",
          "name": "",
          "type": "uint256"
        }
      ],
      "stateMutability": "view",
      "type": "function",
      "constant": true
    },
    {
      "inputs": [],
      "name": "totalReleased",
      "outputs": [
        {
          "internalType": "uint256",
          "name": "",
          "type": "uint256"
        }
      ],
      "stateMutability": "view",
      "type": "function",
      "constant": true
    },
    {
      "inputs": [],
      "name": "totalShares",
      "outputs": [
        {
          "internalType": "uint256",
          "name": "",
          "type": "uint256"
        }
      ],
      "stateMutability": "view",
      "type": "function",
      "constant": true
    },
    {
      "inputs": [],
      "name": "totalSupply",
      "outputs": [
        {
          "internalType": "uint256",
          "name": "",
          "type": "uint256"
        }
      ],
      "stateMutability": "view",
      "type": "function",
      "constant": true
    },
    {
      "inputs": [
        {
          "internalType": "address",
          "name": "to",
          "type": "address"
        },
        {
          "internalType": "uint256",
          "name": "amount",
          "type": "uint256"
        }
      ],
      "name": "transfer",
      "outputs": [
        {
          "internalType": "bool",
          "name": "",
          "type": "bool"
        }
      ],
      "stateMutability": "nonpayable",
      "type": "function"
    },
    {
      "inputs": [
        {
          "internalType": "address",
          "name": "from",
          "type": "address"
        },
        {
          "internalType": "address",
          "name": "to",
          "type": "address"
        },
        {
          "internalType": "uint256",
          "name": "amount",
          "type": "uint256"
        }
      ],
      "name": "transferFrom",
      "outputs": [
        {
          "internalType": "bool",
          "name": "",
          "type": "bool"
        }
      ],
      "stateMutability": "nonpayable",
      "type": "function"
    },
    {
      "inputs": [
        {
          "internalType": "address",
          "name": "newOwner",
          "type": "address"
        }
      ],
      "name": "transferOwnership",
      "outputs": [],
      "stateMutability": "nonpayable",
      "type": "function"
    },
    {
      "stateMutability": "payable",
      "type": "receive",
      "payable": true
    },
    {
      "inputs": [],
      "name": "pauseBuy",
      "outputs": [],
      "stateMutability": "nonpayable",
      "type": "function"
    },
    {
      "inputs": [],
      "name": "unpauseBuy",
      "outputs": [],
      "stateMutability": "nonpayable",
      "type": "function"
    },
    {
      "inputs": [],
      "name": "pauseClaim",
      "outputs": [],
      "stateMutability": "nonpayable",
      "type": "function"
    },
    {
      "inputs": [],
      "name": "unpauseClaim",
      "outputs": [],
      "stateMutability": "nonpayable",
      "type": "function"
    },
    {
      "inputs": [],
      "name": "Claim",
      "outputs": [],
      "stateMutability": "nonpayable",
      "type": "function"
    },
    {
      "inputs": [
        {
          "internalType": "uint256",
          "name": "mintAmount",
          "type": "uint256"
        }
      ],
      "name": "Buy",
      "outputs": [],
      "stateMutability": "payable",
      "type": "function",
      "payable": true
    },
    {
      "inputs": [
        {
          "internalType": "uint256",
          "name": "mintAmount",
          "type": "uint256"
        }
      ],
      "name": "OwnerMint",
      "outputs": [],
      "stateMutability": "nonpayable",
      "type": "function"
    },
    {
      "inputs": [],
      "name": "timeToClaim",
      "outputs": [
        {
          "internalType": "uint256",
          "name": "",
          "type": "uint256"
        }
      ],
      "stateMutability": "view",
      "type": "function",
      "constant": true
    },
    {
      "inputs": [
        {
          "internalType": "address",
          "name": "NewV1Address",
          "type": "address"
        }
      ],
      "name": "changeV1Address",
      "outputs": [],
      "stateMutability": "nonpayable",
      "type": "function"
    },
    {
      "inputs": [
        {
          "internalType": "address",
          "name": "NewV2Address",
          "type": "address"
        }
      ],
      "name": "changeV2Address",
      "outputs": [],
      "stateMutability": "nonpayable",
      "type": "function"
    },
    {
      "inputs": [
        {
          "internalType": "uint256",
          "name": "NewV1Claim",
          "type": "uint256"
        }
      ],
      "name": "changeV1Claim",
      "outputs": [],
      "stateMutability": "nonpayable",
      "type": "function"
    },
    {
      "inputs": [
        {
          "internalType": "uint256",
          "name": "NewV2Claim",
          "type": "uint256"
        }
      ],
      "name": "changeV2Claim",
      "outputs": [],
      "stateMutability": "nonpayable",
      "type": "function"
    },
    {
      "inputs": [
        {
          "internalType": "uint256",
          "name": "NewFYTECost",
          "type": "uint256"
        }
      ],
      "name": "changeFYTECost",
      "outputs": [],
      "stateMutability": "nonpayable",
      "type": "function"
    },
    {
      "inputs": [
        {
          "internalType": "uint256",
          "name": "NewWaitTime",
          "type": "uint256"
        }
      ],
      "name": "changeWaitTime",
      "outputs": [],
      "stateMutability": "nonpayable",
      "type": "function"
    }
  ],
  "bytecode": "0x60806040526001600f556001601055670de0b6b3a7640000601155620151806013553480156200002e57600080fd5b5060405162004a8438038062004a8483398181016040528101906200005491906200097d565b81818585816003908162000069919062000cac565b5080600490816200007b919062000cac565b5050506200009e620000926200028860201b60201c565b6200029060201b60201c565b8051825114620000e5576040517f08c379a0000000000000000000000000000000000000000000000000000000008152600401620000dc9062000e1a565b60405180910390fd5b60008251116200012c576040517f08c379a0000000000000000000000000000000000000000000000000000000008152600401620001239062000e8c565b60405180910390fd5b60005b82518110156200019b576200018583828151811062000153576200015262000eae565b5b602002602001015183838151811062000171576200017062000eae565b5b60200260200101516200035660201b60201c565b8080620001929062000f0c565b9150506200012f565b5050506000601460006101000a81548160ff0219169083151502179055506000601460016101000a81548160ff02191690831515021790555073b0871457ed9812e56083072e8251991e58377c84600d60006101000a81548173ffffffffffffffffffffffffffffffffffffffff021916908373ffffffffffffffffffffffffffffffffffffffff16021790555073449d0c8bb64269b263e8670f04ba1059f12c38d2600e60006101000a81548173ffffffffffffffffffffffffffffffffffffffff021916908373ffffffffffffffffffffffffffffffffffffffff16021790555050505050620011a7565b600033905090565b6000600560009054906101000a900473ffffffffffffffffffffffffffffffffffffffff16905081600560006101000a81548173ffffffffffffffffffffffffffffffffffffffff021916908373ffffffffffffffffffffffffffffffffffffffff1602179055508173ffffffffffffffffffffffffffffffffffffffff168173ffffffffffffffffffffffffffffffffffffffff167f8be0079c531659141344cd1fd0a4f28419497f9722a3daafe3b4186f6b6457e060405160405180910390a35050565b600073ffffffffffffffffffffffffffffffffffffffff168273ffffffffffffffffffffffffffffffffffffffff1603620003c8576040517f08c379a0000000000000000000000000000000000000000000000000000000008152600401620003bf9062000fcf565b60405180910390fd5b600081116200040e576040517f08c379a0000000000000000000000000000000000000000000000000000000008152600401620004059062001041565b60405180910390fd5b6000600860008473ffffffffffffffffffffffffffffffffffffffff1673ffffffffffffffffffffffffffffffffffffffff168152602001908152602001600020541462000493576040517f08c379a00000000000000000000000000000000000000000000000000000000081526004016200048a90620010d9565b60405180910390fd5b600a829080600181540180825580915050600190039060005260206000200160009091909190916101000a81548173ffffffffffffffffffffffffffffffffffffffff021916908373ffffffffffffffffffffffffffffffffffffffff16021790555080600860008473ffffffffffffffffffffffffffffffffffffffff1673ffffffffffffffffffffffffffffffffffffffff16815260200190815260200160002081905550806006546200054a9190620010fb565b6006819055507f40c340f65e17194d14ddddb073d3c9f888e3cb52b5aae0c6c7706b4fbc905fac8282604051620005839291906200117a565b60405180910390a15050565b6000604051905090565b600080fd5b600080fd5b600080fd5b600080fd5b6000601f19601f8301169050919050565b7f4e487b7100000000000000000000000000000000000000000000000000000000600052604160045260246000fd5b620005f882620005ad565b810181811067ffffffffffffffff821117156200061a5762000619620005be565b5b80604052505050565b60006200062f6200058f565b90506200063d8282620005ed565b919050565b600067ffffffffffffffff82111562000660576200065f620005be565b5b6200066b82620005ad565b9050602081019050919050565b60005b83811015620006985780820151818401526020810190506200067b565b83811115620006a8576000848401525b50505050565b6000620006c5620006bf8462000642565b62000623565b905082815260208101848484011115620006e457620006e3620005a8565b5b620006f184828562000678565b509392505050565b600082601f830112620007115762000710620005a3565b5b815162000723848260208601620006ae565b91505092915050565b600067ffffffffffffffff8211156200074a5762000749620005be565b5b602082029050602081019050919050565b600080fd5b600073ffffffffffffffffffffffffffffffffffffffff82169050919050565b60006200078d8262000760565b9050919050565b6200079f8162000780565b8114620007ab57600080fd5b50565b600081519050620007bf8162000794565b92915050565b6000620007dc620007d6846200072c565b62000623565b905080838252602082019050602084028301858111156200080257620008016200075b565b5b835b818110156200082f57806200081a8882620007ae565b84526020840193505060208101905062000804565b5050509392505050565b600082601f830112620008515762000850620005a3565b5b815162000863848260208601620007c5565b91505092915050565b600067ffffffffffffffff8211156200088a5762000889620005be565b5b602082029050602081019050919050565b6000819050919050565b620008b0816200089b565b8114620008bc57600080fd5b50565b600081519050620008d081620008a5565b92915050565b6000620008ed620008e7846200086c565b62000623565b905080838252602082019050602084028301858111156200091357620009126200075b565b5b835b818110156200094057806200092b8882620008bf565b84526020840193505060208101905062000915565b5050509392505050565b600082601f830112620009625762000961620005a3565b5b815162000974848260208601620008d6565b91505092915050565b600080600080608085870312156200099a576200099962000599565b5b600085015167ffffffffffffffff811115620009bb57620009ba6200059e565b5b620009c987828801620006f9565b945050602085015167ffffffffffffffff811115620009ed57620009ec6200059e565b5b620009fb87828801620006f9565b935050604085015167ffffffffffffffff81111562000a1f5762000a1e6200059e565b5b62000a2d8782880162000839565b925050606085015167ffffffffffffffff81111562000a515762000a506200059e565b5b62000a5f878288016200094a565b91505092959194509250565b600081519050919050565b7f4e487b7100000000000000000000000000000000000000000000000000000000600052602260045260246000fd5b6000600282049050600182168062000abe57607f821691505b60208210810362000ad45762000ad362000a76565b5b50919050565b60008190508160005260206000209050919050565b60006020601f8301049050919050565b600082821b905092915050565b60006008830262000b3e7fffffffffffffffffffffffffffffffffffffffffffffffffffffffffffffffff8262000aff565b62000b4a868362000aff565b95508019841693508086168417925050509392505050565b6000819050919050565b600062000b8d62000b8762000b81846200089b565b62000b62565b6200089b565b9050919050565b6000819050919050565b62000ba98362000b6c565b62000bc162000bb88262000b94565b84845462000b0c565b825550505050565b600090565b62000bd862000bc9565b62000be581848462000b9e565b505050565b5b8181101562000c0d5762000c0160008262000bce565b60018101905062000beb565b5050565b601f82111562000c5c5762000c268162000ada565b62000c318462000aef565b8101602085101562000c41578190505b62000c5962000c508562000aef565b83018262000bea565b50505b505050565b600082821c905092915050565b600062000c816000198460080262000c61565b1980831691505092915050565b600062000c9c838362000c6e565b9150826002028217905092915050565b62000cb78262000a6b565b67ffffffffffffffff81111562000cd35762000cd2620005be565b5b62000cdf825462000aa5565b62000cec82828562000c11565b600060209050601f83116001811462000d24576000841562000d0f578287015190505b62000d1b858262000c8e565b86555062000d8b565b601f19841662000d348662000ada565b60005b8281101562000d5e5784890151825560018201915060208501945060208101905062000d37565b8683101562000d7e578489015162000d7a601f89168262000c6e565b8355505b6001600288020188555050505b505050505050565b600082825260208201905092915050565b7f5061796d656e7453706c69747465723a2070617965657320616e64207368617260008201527f6573206c656e677468206d69736d617463680000000000000000000000000000602082015250565b600062000e0260328362000d93565b915062000e0f8262000da4565b604082019050919050565b6000602082019050818103600083015262000e358162000df3565b9050919050565b7f5061796d656e7453706c69747465723a206e6f20706179656573000000000000600082015250565b600062000e74601a8362000d93565b915062000e818262000e3c565b602082019050919050565b6000602082019050818103600083015262000ea78162000e65565b9050919050565b7f4e487b7100000000000000000000000000000000000000000000000000000000600052603260045260246000fd5b7f4e487b7100000000000000000000000000000000000000000000000000000000600052601160045260246000fd5b600062000f19826200089b565b91507fffffffffffffffffffffffffffffffffffffffffffffffffffffffffffffffff820362000f4e5762000f4d62000edd565b5b600182019050919050565b7f5061796d656e7453706c69747465723a206163636f756e74206973207468652060008201527f7a65726f20616464726573730000000000000000000000000000000000000000602082015250565b600062000fb7602c8362000d93565b915062000fc48262000f59565b604082019050919050565b6000602082019050818103600083015262000fea8162000fa8565b9050919050565b7f5061796d656e7453706c69747465723a20736861726573206172652030000000600082015250565b600062001029601d8362000d93565b9150620010368262000ff1565b602082019050919050565b600060208201905081810360008301526200105c816200101a565b9050919050565b7f5061796d656e7453706c69747465723a206163636f756e7420616c726561647960008201527f2068617320736861726573000000000000000000000000000000000000000000602082015250565b6000620010c1602b8362000d93565b9150620010ce8262001063565b604082019050919050565b60006020820190508181036000830152620010f481620010b2565b9050919050565b600062001108826200089b565b915062001115836200089b565b9250827fffffffffffffffffffffffffffffffffffffffffffffffffffffffffffffffff038211156200114d576200114c62000edd565b5b828201905092915050565b620011638162000780565b82525050565b62001174816200089b565b82525050565b600060408201905062001191600083018562001158565b620011a0602083018462001169565b9392505050565b6138cd80620011b76000396000f3fe60806040526004361061026a5760003560e01c806389ead1cf11610144578063aaefb3c3116100b6578063d79779b21161007a578063d79779b21461096b578063d7c31cd2146109a8578063dd62ed3e146109d3578063de065caa14610a10578063e33b7de314610a27578063f2fde38b14610a52576102b1565b8063aaefb3c314610884578063ace6c6ad1461089b578063b983a38a146108c6578063c45ac050146108f1578063ce7c2ac21461092e576102b1565b806395d89b411161010857806395d89b411461074e5780639852595c14610779578063a38eb622146107b6578063a3f8eace146107cd578063a457c2d71461080a578063a9059cbb14610847576102b1565b806389ead1cf1461067d5780638b83209b146106a65780638da5cb5b146106e35780638ff095f91461070e57806394e96f0514610725576102b1565b80633158952e116101dd57806345830c47116101a157806345830c471461058357806348b75044146105ae5780634bb2efb6146105d757806350e639751461060057806370a0823114610629578063715018a614610666576102b1565b80633158952e146104ab57806339509351146104c25780633a98ef39146104ff5780633e3282181461052a578063406072a914610546576102b1565b806318160ddd1161022f57806318160ddd1461039b57806319165587146103c65780631bdda963146103ef57806323b872dd1461041a5780633004711b14610457578063313ce56714610480576102b1565b806279f9f7146102b657806306fdde03146102e157806306fe22121461030c578063095ea7b3146103355780631618c8df14610372576102b1565b366102b1577f6ef95f06320e7a25a04a175ca677b7052bdd97131872c2192525a629f51be770610298610a7b565b346040516102a792919061267a565b60405180910390a1005b600080fd5b3480156102c257600080fd5b506102cb610a83565b6040516102d891906126a3565b60405180910390f35b3480156102ed57600080fd5b506102f6610a89565b6040516103039190612757565b60405180910390f35b34801561031857600080fd5b50610333600480360381019061032e91906127aa565b610b1b565b005b34801561034157600080fd5b5061035c60048036038101906103579190612803565b610b2d565b604051610369919061285e565b60405180910390f35b34801561037e57600080fd5b50610399600480360381019061039491906127aa565b610b50565b005b3480156103a757600080fd5b506103b0610b65565b6040516103bd91906126a3565b60405180910390f35b3480156103d257600080fd5b506103ed60048036038101906103e891906128b7565b610b6f565b005b3480156103fb57600080fd5b50610404610cf7565b60405161041191906126a3565b60405180910390f35b34801561042657600080fd5b50610441600480360381019061043c91906128e4565b610cfd565b60405161044e919061285e565b60405180910390f35b34801561046357600080fd5b5061047e600480360381019061047991906127aa565b610d2c565b005b34801561048c57600080fd5b50610495610d3e565b6040516104a29190612953565b60405180910390f35b3480156104b757600080fd5b506104c0610d47565b005b3480156104ce57600080fd5b506104e960048036038101906104e49190612803565b610fc3565b6040516104f6919061285e565b60405180910390f35b34801561050b57600080fd5b50610514610ffa565b60405161052191906126a3565b60405180910390f35b610544600480360381019061053f91906127aa565b611004565b005b34801561055257600080fd5b5061056d600480360381019061056891906129ac565b6110b1565b60405161057a91906126a3565b60405180910390f35b34801561058f57600080fd5b50610598611138565b6040516105a591906126a3565b60405180910390f35b3480156105ba57600080fd5b506105d560048036038101906105d091906129ac565b61113e565b005b3480156105e357600080fd5b506105fe60048036038101906105f991906127aa565b61135a565b005b34801561060c57600080fd5b50610627600480360381019061062291906129ec565b61136c565b005b34801561063557600080fd5b50610650600480360381019061064b91906129ec565b6113b8565b60405161065d91906126a3565b60405180910390f35b34801561067257600080fd5b5061067b611400565b005b34801561068957600080fd5b506106a4600480360381019061069f91906127aa565b611414565b005b3480156106b257600080fd5b506106cd60048036038101906106c891906127aa565b611426565b6040516106da9190612a19565b60405180910390f35b3480156106ef57600080fd5b506106f861146e565b6040516107059190612a19565b60405180910390f35b34801561071a57600080fd5b50610723611498565b005b34801561073157600080fd5b5061074c600480360381019061074791906129ec565b6114bd565b005b34801561075a57600080fd5b50610763611509565b6040516107709190612757565b60405180910390f35b34801561078557600080fd5b506107a0600480360381019061079b91906129ec565b61159b565b6040516107ad91906126a3565b60405180910390f35b3480156107c257600080fd5b506107cb6115e4565b005b3480156107d957600080fd5b506107f460048036038101906107ef91906129ec565b611609565b60405161080191906126a3565b60405180910390f35b34801561081657600080fd5b50610831600480360381019061082c9190612803565b61163c565b60405161083e919061285e565b60405180910390f35b34801561085357600080fd5b5061086e60048036038101906108699190612803565b6116b3565b60405161087b919061285e565b60405180910390f35b34801561089057600080fd5b506108996116d6565b005b3480156108a757600080fd5b506108b06116fb565b6040516108bd9190612a19565b60405180910390f35b3480156108d257600080fd5b506108db611721565b6040516108e89190612a19565b60405180910390f35b3480156108fd57600080fd5b50610918600480360381019061091391906129ac565b611747565b60405161092591906126a3565b60405180910390f35b34801561093a57600080fd5b50610955600480360381019061095091906129ec565b6117f6565b60405161096291906126a3565b60405180910390f35b34801561097757600080fd5b50610992600480360381019061098d9190612a34565b61183f565b60405161099f91906126a3565b60405180910390f35b3480156109b457600080fd5b506109bd611888565b6040516109ca91906126a3565b60405180910390f35b3480156109df57600080fd5b506109fa60048036038101906109f59190612a61565b611901565b604051610a0791906126a3565b60405180910390f35b348015610a1c57600080fd5b50610a25611988565b005b348015610a3357600080fd5b50610a3c6119ad565b604051610a4991906126a3565b60405180910390f35b348015610a5e57600080fd5b50610a796004803603810190610a7491906129ec565b6119b7565b005b600033905090565b600f5481565b606060038054610a9890612ad0565b80601f0160208091040260200160405190810160405280929190818152602001828054610ac490612ad0565b8015610b115780601f10610ae657610100808354040283529160200191610b11565b820191906000526020600020905b815481529060010190602001808311610af457829003601f168201915b5050505050905090565b610b23611a3a565b8060138190555050565b600080610b38610a7b565b9050610b45818585611ab8565b600191505092915050565b610b58611a3a565b610b623382611c81565b50565b6000600254905090565b6000600860008373ffffffffffffffffffffffffffffffffffffffff1673ffffffffffffffffffffffffffffffffffffffff1681526020019081526020016000205411610bf1576040517f08c379a0000000000000000000000000000000000000000000000000000000008152600401610be890612b73565b60405180910390fd5b6000610bfc82611609565b905060008103610c41576040517f08c379a0000000000000000000000000000000000000000000000000000000008152600401610c3890612c05565b60405180910390fd5b80600960008473ffffffffffffffffffffffffffffffffffffffff1673ffffffffffffffffffffffffffffffffffffffff1681526020019081526020016000206000828254610c909190612c54565b925050819055508060076000828254610ca99190612c54565b92505081905550610cba8282611de0565b7fdf20fd1e76bc69d672e4814fafb2c449bba3a5369d8359adf9e05e6fde87b0568282604051610ceb929190612d09565b60405180910390a15050565b60105481565b600080610d08610a7b565b9050610d15858285611ed4565b610d20858585611f60565b60019150509392505050565b610d34611a3a565b8060118190555050565b60006012905090565b601460019054906101000a900460ff1615610d97576040517f08c379a0000000000000000000000000000000000000000000000000000000008152600401610d8e90612d7e565b60405180910390fd5b6000601260003373ffffffffffffffffffffffffffffffffffffffff1673ffffffffffffffffffffffffffffffffffffffff1681526020019081526020016000205490506013548142610dea9190612d9e565b10610fb95742601260003373ffffffffffffffffffffffffffffffffffffffff1673ffffffffffffffffffffffffffffffffffffffff168152602001908152602001600020819055506000600e60009054906101000a900473ffffffffffffffffffffffffffffffffffffffff1673ffffffffffffffffffffffffffffffffffffffff166370a08231336040518263ffffffff1660e01b8152600401610e909190612a19565b602060405180830381865afa158015610ead573d6000803e3d6000fd5b505050506040513d601f19601f82011682018060405250810190610ed19190612de7565b90506000600d60009054906101000a900473ffffffffffffffffffffffffffffffffffffffff1673ffffffffffffffffffffffffffffffffffffffff166370a08231336040518263ffffffff1660e01b8152600401610f309190612a19565b602060405180830381865afa158015610f4d573d6000803e3d6000fd5b505050506040513d601f19601f82011682018060405250810190610f719190612de7565b9050600060105482610f839190612e14565b600f5484610f919190612e14565b610f9b9190612c54565b90506000811115610fb157610fb03382611c81565b5b505050610fbf565b50610fc1565b505b565b600080610fce610a7b565b9050610fef818585610fe08589611901565b610fea9190612c54565b611ab8565b600191505092915050565b6000600654905090565b601460009054906101000a900460ff1615611054576040517f08c379a000000000000000000000000000000000000000000000000000000000815260040161104b90612eba565b60405180910390fd5b601154816110629190612e14565b3410156110a4576040517f08c379a000000000000000000000000000000000000000000000000000000000815260040161109b90612f26565b60405180910390fd5b6110ae3382611c81565b50565b6000600c60008473ffffffffffffffffffffffffffffffffffffffff1673ffffffffffffffffffffffffffffffffffffffff16815260200190815260200160002060008373ffffffffffffffffffffffffffffffffffffffff1673ffffffffffffffffffffffffffffffffffffffff16815260200190815260200160002054905092915050565b60115481565b6000600860008373ffffffffffffffffffffffffffffffffffffffff1673ffffffffffffffffffffffffffffffffffffffff16815260200190815260200160002054116111c0576040517f08c379a00000000000000000000000000000000000000000000000000000000081526004016111b790612b73565b60405180910390fd5b60006111cc8383611747565b905060008103611211576040517f08c379a000000000000000000000000000000000000000000000000000000000815260040161120890612c05565b60405180910390fd5b80600c60008573ffffffffffffffffffffffffffffffffffffffff1673ffffffffffffffffffffffffffffffffffffffff16815260200190815260200160002060008473ffffffffffffffffffffffffffffffffffffffff1673ffffffffffffffffffffffffffffffffffffffff168152602001908152602001600020600082825461129d9190612c54565b9250508190555080600b60008573ffffffffffffffffffffffffffffffffffffffff1673ffffffffffffffffffffffffffffffffffffffff16815260200190815260200160002060008282546112f39190612c54565b925050819055506113058383836121df565b8273ffffffffffffffffffffffffffffffffffffffff167f3be5b7a71e84ed12875d241991c70855ac5817d847039e17a9d895c1ceb0f18a838360405161134d92919061267a565b60405180910390a2505050565b611362611a3a565b80600f8190555050565b611374611a3a565b80600d60006101000a81548173ffffffffffffffffffffffffffffffffffffffff021916908373ffffffffffffffffffffffffffffffffffffffff16021790555050565b60008060008373ffffffffffffffffffffffffffffffffffffffff1673ffffffffffffffffffffffffffffffffffffffff168152602001908152602001600020549050919050565b611408611a3a565b6114126000612265565b565b61141c611a3a565b8060108190555050565b6000600a828154811061143c5761143b612f46565b5b9060005260206000200160009054906101000a900473ffffffffffffffffffffffffffffffffffffffff169050919050565b6000600560009054906101000a900473ffffffffffffffffffffffffffffffffffffffff16905090565b6114a0611a3a565b6001601460016101000a81548160ff021916908315150217905550565b6114c5611a3a565b80600e60006101000a81548173ffffffffffffffffffffffffffffffffffffffff021916908373ffffffffffffffffffffffffffffffffffffffff16021790555050565b60606004805461151890612ad0565b80601f016020809104026020016040519081016040528092919081815260200182805461154490612ad0565b80156115915780601f1061156657610100808354040283529160200191611591565b820191906000526020600020905b81548152906001019060200180831161157457829003601f168201915b5050505050905090565b6000600960008373ffffffffffffffffffffffffffffffffffffffff1673ffffffffffffffffffffffffffffffffffffffff168152602001908152602001600020549050919050565b6115ec611a3a565b6001601460006101000a81548160ff021916908315150217905550565b6000806116146119ad565b4761161f9190612c54565b9050611634838261162f8661159b565b61232b565b915050919050565b600080611647610a7b565b905060006116558286611901565b90508381101561169a576040517f08c379a000000000000000000000000000000000000000000000000000000000815260040161169190612fe7565b60405180910390fd5b6116a78286868403611ab8565b60019250505092915050565b6000806116be610a7b565b90506116cb818585611f60565b600191505092915050565b6116de611a3a565b6000601460006101000a81548160ff021916908315150217905550565b600e60009054906101000a900473ffffffffffffffffffffffffffffffffffffffff1681565b600d60009054906101000a900473ffffffffffffffffffffffffffffffffffffffff1681565b6000806117538461183f565b8473ffffffffffffffffffffffffffffffffffffffff166370a08231306040518263ffffffff1660e01b815260040161178c9190612a19565b602060405180830381865afa1580156117a9573d6000803e3d6000fd5b505050506040513d601f19601f820116820180604052508101906117cd9190612de7565b6117d79190612c54565b90506117ed83826117e887876110b1565b61232b565b91505092915050565b6000600860008373ffffffffffffffffffffffffffffffffffffffff1673ffffffffffffffffffffffffffffffffffffffff168152602001908152602001600020549050919050565b6000600b60008373ffffffffffffffffffffffffffffffffffffffff1673ffffffffffffffffffffffffffffffffffffffff168152602001908152602001600020549050919050565b600080601260003373ffffffffffffffffffffffffffffffffffffffff1673ffffffffffffffffffffffffffffffffffffffff16815260200190815260200160002054426118d69190612d9e565b90506013548111156118ec5760009150506118fe565b806013546118fa9190612d9e565b9150505b90565b6000600160008473ffffffffffffffffffffffffffffffffffffffff1673ffffffffffffffffffffffffffffffffffffffff16815260200190815260200160002060008373ffffffffffffffffffffffffffffffffffffffff1673ffffffffffffffffffffffffffffffffffffffff16815260200190815260200160002054905092915050565b611990611a3a565b6000601460016101000a81548160ff021916908315150217905550565b6000600754905090565b6119bf611a3a565b600073ffffffffffffffffffffffffffffffffffffffff168173ffffffffffffffffffffffffffffffffffffffff1603611a2e576040517f08c379a0000000000000000000000000000000000000000000000000000000008152600401611a2590613079565b60405180910390fd5b611a3781612265565b50565b611a42610a7b565b73ffffffffffffffffffffffffffffffffffffffff16611a6061146e565b73ffffffffffffffffffffffffffffffffffffffff1614611ab6576040517f08c379a0000000000000000000000000000000000000000000000000000000008152600401611aad906130e5565b60405180910390fd5b565b600073ffffffffffffffffffffffffffffffffffffffff168373ffffffffffffffffffffffffffffffffffffffff1603611b27576040517f08c379a0000000000000000000000000000000000000000000000000000000008152600401611b1e90613177565b60405180910390fd5b600073ffffffffffffffffffffffffffffffffffffffff168273ffffffffffffffffffffffffffffffffffffffff1603611b96576040517f08c379a0000000000000000000000000000000000000000000000000000000008152600401611b8d90613209565b60405180910390fd5b80600160008573ffffffffffffffffffffffffffffffffffffffff1673ffffffffffffffffffffffffffffffffffffffff16815260200190815260200160002060008473ffffffffffffffffffffffffffffffffffffffff1673ffffffffffffffffffffffffffffffffffffffff168152602001908152602001600020819055508173ffffffffffffffffffffffffffffffffffffffff168373ffffffffffffffffffffffffffffffffffffffff167f8c5be1e5ebec7d5bd14f71427d1e84f3dd0314c0f7b2291e5b200ac8c7c3b92583604051611c7491906126a3565b60405180910390a3505050565b600073ffffffffffffffffffffffffffffffffffffffff168273ffffffffffffffffffffffffffffffffffffffff1603611cf0576040517f08c379a0000000000000000000000000000000000000000000000000000000008152600401611ce790613275565b60405180910390fd5b611cfc60008383612399565b8060026000828254611d0e9190612c54565b92505081905550806000808473ffffffffffffffffffffffffffffffffffffffff1673ffffffffffffffffffffffffffffffffffffffff1681526020019081526020016000206000828254611d639190612c54565b925050819055508173ffffffffffffffffffffffffffffffffffffffff16600073ffffffffffffffffffffffffffffffffffffffff167fddf252ad1be2c89b69c2b068fc378daa952ba7f163c4a11628f55a4df523b3ef83604051611dc891906126a3565b60405180910390a3611ddc6000838361239e565b5050565b80471015611e23576040517f08c379a0000000000000000000000000000000000000000000000000000000008152600401611e1a906132e1565b60405180910390fd5b60008273ffffffffffffffffffffffffffffffffffffffff1682604051611e4990613332565b60006040518083038185875af1925050503d8060008114611e86576040519150601f19603f3d011682016040523d82523d6000602084013e611e8b565b606091505b5050905080611ecf576040517f08c379a0000000000000000000000000000000000000000000000000000000008152600401611ec6906133b9565b60405180910390fd5b505050565b6000611ee08484611901565b90507fffffffffffffffffffffffffffffffffffffffffffffffffffffffffffffffff8114611f5a5781811015611f4c576040517f08c379a0000000000000000000000000000000000000000000000000000000008152600401611f4390613425565b60405180910390fd5b611f598484848403611ab8565b5b50505050565b600073ffffffffffffffffffffffffffffffffffffffff168373ffffffffffffffffffffffffffffffffffffffff1603611fcf576040517f08c379a0000000000000000000000000000000000000000000000000000000008152600401611fc6906134b7565b60405180910390fd5b600073ffffffffffffffffffffffffffffffffffffffff168273ffffffffffffffffffffffffffffffffffffffff160361203e576040517f08c379a000000000000000000000000000000000000000000000000000000000815260040161203590613549565b60405180910390fd5b612049838383612399565b60008060008573ffffffffffffffffffffffffffffffffffffffff1673ffffffffffffffffffffffffffffffffffffffff168152602001908152602001600020549050818110156120cf576040517f08c379a00000000000000000000000000000000000000000000000000000000081526004016120c6906135db565b60405180910390fd5b8181036000808673ffffffffffffffffffffffffffffffffffffffff1673ffffffffffffffffffffffffffffffffffffffff16815260200190815260200160002081905550816000808573ffffffffffffffffffffffffffffffffffffffff1673ffffffffffffffffffffffffffffffffffffffff16815260200190815260200160002060008282546121629190612c54565b925050819055508273ffffffffffffffffffffffffffffffffffffffff168473ffffffffffffffffffffffffffffffffffffffff167fddf252ad1be2c89b69c2b068fc378daa952ba7f163c4a11628f55a4df523b3ef846040516121c691906126a3565b60405180910390a36121d984848461239e565b50505050565b6122608363a9059cbb60e01b84846040516024016121fe92919061267a565b604051602081830303815290604052907bffffffffffffffffffffffffffffffffffffffffffffffffffffffff19166020820180517bffffffffffffffffffffffffffffffffffffffffffffffffffffffff83818316178352505050506123a3565b505050565b6000600560009054906101000a900473ffffffffffffffffffffffffffffffffffffffff16905081600560006101000a81548173ffffffffffffffffffffffffffffffffffffffff021916908373ffffffffffffffffffffffffffffffffffffffff1602179055508173ffffffffffffffffffffffffffffffffffffffff168173ffffffffffffffffffffffffffffffffffffffff167f8be0079c531659141344cd1fd0a4f28419497f9722a3daafe3b4186f6b6457e060405160405180910390a35050565b600081600654600860008773ffffffffffffffffffffffffffffffffffffffff1673ffffffffffffffffffffffffffffffffffffffff168152602001908152602001600020548561237c9190612e14565b612386919061362a565b6123909190612d9e565b90509392505050565b505050565b505050565b6000612405826040518060400160405280602081526020017f5361666545524332303a206c6f772d6c6576656c2063616c6c206661696c65648152508573ffffffffffffffffffffffffffffffffffffffff1661246a9092919063ffffffff16565b905060008151111561246557808060200190518101906124259190613687565b612464576040517f08c379a000000000000000000000000000000000000000000000000000000000815260040161245b90613726565b60405180910390fd5b5b505050565b60606124798484600085612482565b90509392505050565b6060824710156124c7576040517f08c379a00000000000000000000000000000000000000000000000000000000081526004016124be906137b8565b60405180910390fd5b6124d085612596565b61250f576040517f08c379a000000000000000000000000000000000000000000000000000000000815260040161250690613824565b60405180910390fd5b6000808673ffffffffffffffffffffffffffffffffffffffff1685876040516125389190613880565b60006040518083038185875af1925050503d8060008114612575576040519150601f19603f3d011682016040523d82523d6000602084013e61257a565b606091505b509150915061258a8282866125b9565b92505050949350505050565b6000808273ffffffffffffffffffffffffffffffffffffffff163b119050919050565b606083156125c957829050612619565b6000835111156125dc5782518084602001fd5b816040517f08c379a00000000000000000000000000000000000000000000000000000000081526004016126109190612757565b60405180910390fd5b9392505050565b600073ffffffffffffffffffffffffffffffffffffffff82169050919050565b600061264b82612620565b9050919050565b61265b81612640565b82525050565b6000819050919050565b61267481612661565b82525050565b600060408201905061268f6000830185612652565b61269c602083018461266b565b9392505050565b60006020820190506126b8600083018461266b565b92915050565b600081519050919050565b600082825260208201905092915050565b60005b838110156126f85780820151818401526020810190506126dd565b83811115612707576000848401525b50505050565b6000601f19601f8301169050919050565b6000612729826126be565b61273381856126c9565b93506127438185602086016126da565b61274c8161270d565b840191505092915050565b60006020820190508181036000830152612771818461271e565b905092915050565b600080fd5b61278781612661565b811461279257600080fd5b50565b6000813590506127a48161277e565b92915050565b6000602082840312156127c0576127bf612779565b5b60006127ce84828501612795565b91505092915050565b6127e081612640565b81146127eb57600080fd5b50565b6000813590506127fd816127d7565b92915050565b6000806040838503121561281a57612819612779565b5b6000612828858286016127ee565b925050602061283985828601612795565b9150509250929050565b60008115159050919050565b61285881612843565b82525050565b6000602082019050612873600083018461284f565b92915050565b600061288482612620565b9050919050565b61289481612879565b811461289f57600080fd5b50565b6000813590506128b18161288b565b92915050565b6000602082840312156128cd576128cc612779565b5b60006128db848285016128a2565b91505092915050565b6000806000606084860312156128fd576128fc612779565b5b600061290b868287016127ee565b935050602061291c868287016127ee565b925050604061292d86828701612795565b9150509250925092565b600060ff82169050919050565b61294d81612937565b82525050565b60006020820190506129686000830184612944565b92915050565b600061297982612640565b9050919050565b6129898161296e565b811461299457600080fd5b50565b6000813590506129a681612980565b92915050565b600080604083850312156129c3576129c2612779565b5b60006129d185828601612997565b92505060206129e2858286016127ee565b9150509250929050565b600060208284031215612a0257612a01612779565b5b6000612a10848285016127ee565b91505092915050565b6000602082019050612a2e6000830184612652565b92915050565b600060208284031215612a4a57612a49612779565b5b6000612a5884828501612997565b91505092915050565b60008060408385031215612a7857612a77612779565b5b6000612a86858286016127ee565b9250506020612a97858286016127ee565b9150509250929050565b7f4e487b7100000000000000000000000000000000000000000000000000000000600052602260045260246000fd5b60006002820490506001821680612ae857607f821691505b602082108103612afb57612afa612aa1565b5b50919050565b7f5061796d656e7453706c69747465723a206163636f756e7420686173206e6f2060008201527f7368617265730000000000000000000000000000000000000000000000000000602082015250565b6000612b5d6026836126c9565b9150612b6882612b01565b604082019050919050565b60006020820190508181036000830152612b8c81612b50565b9050919050565b7f5061796d656e7453706c69747465723a206163636f756e74206973206e6f742060008201527f647565207061796d656e74000000000000000000000000000000000000000000602082015250565b6000612bef602b836126c9565b9150612bfa82612b93565b604082019050919050565b60006020820190508181036000830152612c1e81612be2565b9050919050565b7f4e487b7100000000000000000000000000000000000000000000000000000000600052601160045260246000fd5b6000612c5f82612661565b9150612c6a83612661565b9250827fffffffffffffffffffffffffffffffffffffffffffffffffffffffffffffffff03821115612c9f57612c9e612c25565b5b828201905092915050565b6000819050919050565b6000612ccf612cca612cc584612620565b612caa565b612620565b9050919050565b6000612ce182612cb4565b9050919050565b6000612cf382612cd6565b9050919050565b612d0381612ce8565b82525050565b6000604082019050612d1e6000830185612cfa565b612d2b602083018461266b565b9392505050565b7f436c61696d206973207061757365640000000000000000000000000000000000600082015250565b6000612d68600f836126c9565b9150612d7382612d32565b602082019050919050565b60006020820190508181036000830152612d9781612d5b565b9050919050565b6000612da982612661565b9150612db483612661565b925082821015612dc757612dc6612c25565b5b828203905092915050565b600081519050612de18161277e565b92915050565b600060208284031215612dfd57612dfc612779565b5b6000612e0b84828501612dd2565b91505092915050565b6000612e1f82612661565b9150612e2a83612661565b9250817fffffffffffffffffffffffffffffffffffffffffffffffffffffffffffffffff0483118215151615612e6357612e62612c25565b5b828202905092915050565b7f4275792069732070617573656400000000000000000000000000000000000000600082015250565b6000612ea4600d836126c9565b9150612eaf82612e6e565b602082019050919050565b60006020820190508181036000830152612ed381612e97565b9050919050565b7f4e6f7420656e6f7567682065746865722073656e640000000000000000000000600082015250565b6000612f106015836126c9565b9150612f1b82612eda565b602082019050919050565b60006020820190508181036000830152612f3f81612f03565b9050919050565b7f4e487b7100000000000000000000000000000000000000000000000000000000600052603260045260246000fd5b7f45524332303a2064656372656173656420616c6c6f77616e63652062656c6f7760008201527f207a65726f000000000000000000000000000000000000000000000000000000602082015250565b6000612fd16025836126c9565b9150612fdc82612f75565b604082019050919050565b6000602082019050818103600083015261300081612fc4565b9050919050565b7f4f776e61626c653a206e6577206f776e657220697320746865207a65726f206160008201527f6464726573730000000000000000000000000000000000000000000000000000602082015250565b60006130636026836126c9565b915061306e82613007565b604082019050919050565b6000602082019050818103600083015261309281613056565b9050919050565b7f4f776e61626c653a2063616c6c6572206973206e6f7420746865206f776e6572600082015250565b60006130cf6020836126c9565b91506130da82613099565b602082019050919050565b600060208201905081810360008301526130fe816130c2565b9050919050565b7f45524332303a20617070726f76652066726f6d20746865207a65726f2061646460008201527f7265737300000000000000000000000000000000000000000000000000000000602082015250565b60006131616024836126c9565b915061316c82613105565b604082019050919050565b6000602082019050818103600083015261319081613154565b9050919050565b7f45524332303a20617070726f766520746f20746865207a65726f20616464726560008201527f7373000000000000000000000000000000000000000000000000000000000000602082015250565b60006131f36022836126c9565b91506131fe82613197565b604082019050919050565b60006020820190508181036000830152613222816131e6565b9050919050565b7f45524332303a206d696e7420746f20746865207a65726f206164647265737300600082015250565b600061325f601f836126c9565b915061326a82613229565b602082019050919050565b6000602082019050818103600083015261328e81613252565b9050919050565b7f416464726573733a20696e73756666696369656e742062616c616e6365000000600082015250565b60006132cb601d836126c9565b91506132d682613295565b602082019050919050565b600060208201905081810360008301526132fa816132be565b9050919050565b600081905092915050565b50565b600061331c600083613301565b91506133278261330c565b600082019050919050565b600061333d8261330f565b9150819050919050565b7f416464726573733a20756e61626c6520746f2073656e642076616c75652c207260008201527f6563697069656e74206d61792068617665207265766572746564000000000000602082015250565b60006133a3603a836126c9565b91506133ae82613347565b604082019050919050565b600060208201905081810360008301526133d281613396565b9050919050565b7f45524332303a20696e73756666696369656e7420616c6c6f77616e6365000000600082015250565b600061340f601d836126c9565b915061341a826133d9565b602082019050919050565b6000602082019050818103600083015261343e81613402565b9050919050565b7f45524332303a207472616e736665722066726f6d20746865207a65726f20616460008201527f6472657373000000000000000000000000000000000000000000000000000000602082015250565b60006134a16025836126c9565b91506134ac82613445565b604082019050919050565b600060208201905081810360008301526134d081613494565b9050919050565b7f45524332303a207472616e7366657220746f20746865207a65726f206164647260008201527f6573730000000000000000000000000000000000000000000000000000000000602082015250565b60006135336023836126c9565b915061353e826134d7565b604082019050919050565b6000602082019050818103600083015261356281613526565b9050919050565b7f45524332303a207472616e7366657220616d6f756e742065786365656473206260008201527f616c616e63650000000000000000000000000000000000000000000000000000602082015250565b60006135c56026836126c9565b91506135d082613569565b604082019050919050565b600060208201905081810360008301526135f4816135b8565b9050919050565b7f4e487b7100000000000000000000000000000000000000000000000000000000600052601260045260246000fd5b600061363582612661565b915061364083612661565b9250826136505761364f6135fb565b5b828204905092915050565b61366481612843565b811461366f57600080fd5b50565b6000815190506136818161365b565b92915050565b60006020828403121561369d5761369c612779565b5b60006136ab84828501613672565b91505092915050565b7f5361666545524332303a204552433230206f7065726174696f6e20646964206e60008201527f6f74207375636365656400000000000000000000000000000000000000000000602082015250565b6000613710602a836126c9565b915061371b826136b4565b604082019050919050565b6000602082019050818103600083015261373f81613703565b9050919050565b7f416464726573733a20696e73756666696369656e742062616c616e636520666f60008201527f722063616c6c0000000000000000000000000000000000000000000000000000602082015250565b60006137a26026836126c9565b91506137ad82613746565b604082019050919050565b600060208201905081810360008301526137d181613795565b9050919050565b7f416464726573733a2063616c6c20746f206e6f6e2d636f6e7472616374000000600082015250565b600061380e601d836126c9565b9150613819826137d8565b602082019050919050565b6000602082019050818103600083015261383d81613801565b9050919050565b600081519050919050565b600061385a82613844565b6138648185613301565b93506138748185602086016126da565b80840191505092915050565b600061388c828461384f565b91508190509291505056fea2646970667358221220b0b2940d06aa3ef7caecb367e2224a5b836ccad6f70d6ee86d4c681d8216e5b064736f6c634300080f0033",
  "immutableReferences": {},
  "source": "\n// SPDX-License-Identifier: MIT\npragma solidity ^0.8.0;\n\nimport \"../node_modules/@openzeppelin/contracts/token/ERC20/ERC20.sol\";\nimport \"../node_modules/@openzeppelin/contracts/token/ERC721/IERC721.sol\";\nimport \"../node_modules/@openzeppelin/contracts/access/Ownable.sol\";\nimport \"../node_modules/@openzeppelin/contracts/finance/PaymentSplitter.sol\";\n\n//note: could make this thing pausable and include some reentrancyGuard for good security\n\ncontract FYTE is ERC20, Ownable,PaymentSplitter {\n    address public V2Address; //these are just temporary values for testing\n    address public V1Address;\n    uint256 public V1ClaimAmount=1;\n    uint256 public V2ClaimAmount=1;\n    uint256 public FYTECost = 1 ether;\n    mapping (address=>uint256) private ClaimDate; //mapping of addresses to time last claimed succuesfully. \n    uint256 private WaitTime  = 60*60*24;  //seconds in a day-- wait 24 hours between claims\n    bool private _pausedBuy;\n    bool private _pausedClaim;\n    constructor(string memory name, string memory symbol, address[] memory payees, uint256[] memory shares) ERC20(name,symbol) PaymentSplitter(payees, shares) {\n        _pausedBuy = false;\n        _pausedClaim = false;\n        V2Address=0xB0871457eD9812e56083072E8251991e58377C84;\n        V1Address = 0x449d0c8BB64269b263e8670F04Ba1059f12c38D2;\n    }\n    function pauseBuy() public onlyOwner {\n        _pausedBuy=true;\n    }\n    function unpauseBuy() public onlyOwner {\n        _pausedBuy=false;\n    }\n    function pauseClaim() public onlyOwner {\n        _pausedClaim=true;\n    }\n    function unpauseClaim() public onlyOwner {\n        _pausedClaim=false;\n    }\n    //NOTE:\n        //more test functions for all the only owner functions\n        //gas optimzie to make it smaller\n        //check if wait time being a function \n\n    //Allows users to claim a set amount of tokens daily depending on whether they own a V1 or V2 NFT\n    function Claim() public {\n        require(! (_pausedClaim),\"Claim is paused\");\n        uint256 lastClaimDate = ClaimDate[msg.sender];\n        if(block.timestamp-lastClaimDate >= WaitTime) { //use timestamp on a large timescale is safe.\n            ClaimDate[msg.sender] = block.timestamp; //update the date first \n            //we control the location of these contracts, so we don't have to worry about re-entrancy\n            uint256 NFTCount1 = IERC721(V1Address).balanceOf(msg.sender); \n            uint256 NFTCount2 = IERC721(V2Address).balanceOf(msg.sender);\n            uint256 totalMint = (NFTCount1 * V1ClaimAmount)+ (NFTCount2 * V2ClaimAmount);\n            if(totalMint > 0) {\n                _mint(msg.sender, totalMint);\n            }\n            \n            \n\n            //mint tokens based on V1 and V2 tokens.\n        }\n        else {\n            return; //already claimed their tokens. Maybe change this to return time until they can claim in the future if neccesary\n        }\n    }\n    //Allows users to buy a set number of tokens at a fixed price. \n    function Buy(uint256 mintAmount) public payable { \n        //NOTE: Solidity 0.8.0 and above will check for overflows, so we are safe to multiply inputAmount\n        require(! (_pausedBuy),\"Buy is paused\");\n        require(msg.value >= mintAmount * FYTECost, \"Not enough ether send\");\n        _mint(msg.sender,mintAmount);\n        \n    }\n    function OwnerMint(uint256 mintAmount) public onlyOwner {\n         _mint(msg.sender,mintAmount);\n    }\n    function timeToClaim() public view returns (uint256) {\n        uint256 time = (block.timestamp-ClaimDate[msg.sender]);\n        if(time >WaitTime) {\n            return 0;\n        }\n        return WaitTime - time;\n    }\n    //allows changing of variables, will include other ones over time\n    function changeV1Address(address NewV1Address) public onlyOwner {\n       V1Address = NewV1Address;\n    }\n    function changeV2Address(address NewV2Address) public onlyOwner {\n       V2Address = NewV2Address;\n    }\n    function changeV1Claim(uint256 NewV1Claim) public onlyOwner {\n       V1ClaimAmount =NewV1Claim;\n    }\n    function changeV2Claim(uint256 NewV2Claim) public onlyOwner {\n       V2ClaimAmount =NewV2Claim;\n    }\n    function changeFYTECost(uint256 NewFYTECost) public onlyOwner {\n        FYTECost = NewFYTECost;\n    }\n    function changeWaitTime(uint256 NewWaitTime) public onlyOwner {\n        WaitTime = NewWaitTime;\n    }\n    \n\n\n\n   \n}\n\n\n\n",
  "sourcePath": "/Users/cbriggs/Desktop/SolidityPractice/contracts/Gems.sol",
  "compiler": {
    "name": "solc",
    "version": "0.8.15+commit.e14f2714.Emscripten.clang"
  },
  "schemaVersion": "3.4.8",
  "updatedAt": "2022-08-17T05:15:39.500Z",
  "networkType": "ethereum",
  "devdoc": {
    "kind": "dev",
    "methods": {
      "allowance(address,address)": {
        "details": "See {IERC20-allowance}."
      },
      "approve(address,uint256)": {
        "details": "See {IERC20-approve}. NOTE: If `amount` is the maximum `uint256`, the allowance is not updated on `transferFrom`. This is semantically equivalent to an infinite approval. Requirements: - `spender` cannot be the zero address."
      },
      "balanceOf(address)": {
        "details": "See {IERC20-balanceOf}."
      },
      "decimals()": {
        "details": "Returns the number of decimals used to get its user representation. For example, if `decimals` equals `2`, a balance of `505` tokens should be displayed to a user as `5.05` (`505 / 10 ** 2`). Tokens usually opt for a value of 18, imitating the relationship between Ether and Wei. This is the value {ERC20} uses, unless this function is overridden; NOTE: This information is only used for _display_ purposes: it in no way affects any of the arithmetic of the contract, including {IERC20-balanceOf} and {IERC20-transfer}."
      },
      "decreaseAllowance(address,uint256)": {
        "details": "Atomically decreases the allowance granted to `spender` by the caller. This is an alternative to {approve} that can be used as a mitigation for problems described in {IERC20-approve}. Emits an {Approval} event indicating the updated allowance. Requirements: - `spender` cannot be the zero address. - `spender` must have allowance for the caller of at least `subtractedValue`."
      },
      "increaseAllowance(address,uint256)": {
        "details": "Atomically increases the allowance granted to `spender` by the caller. This is an alternative to {approve} that can be used as a mitigation for problems described in {IERC20-approve}. Emits an {Approval} event indicating the updated allowance. Requirements: - `spender` cannot be the zero address."
      },
      "name()": {
        "details": "Returns the name of the token."
      },
      "owner()": {
        "details": "Returns the address of the current owner."
      },
      "payee(uint256)": {
        "details": "Getter for the address of the payee number `index`."
      },
      "releasable(address)": {
        "details": "Getter for the amount of payee's releasable Ether."
      },
      "releasable(address,address)": {
        "details": "Getter for the amount of payee's releasable `token` tokens. `token` should be the address of an IERC20 contract."
      },
      "release(address)": {
        "details": "Triggers a transfer to `account` of the amount of Ether they are owed, according to their percentage of the total shares and their previous withdrawals."
      },
      "release(address,address)": {
        "details": "Triggers a transfer to `account` of the amount of `token` tokens they are owed, according to their percentage of the total shares and their previous withdrawals. `token` must be the address of an IERC20 contract."
      },
      "released(address)": {
        "details": "Getter for the amount of Ether already released to a payee."
      },
      "released(address,address)": {
        "details": "Getter for the amount of `token` tokens already released to a payee. `token` should be the address of an IERC20 contract."
      },
      "renounceOwnership()": {
        "details": "Leaves the contract without owner. It will not be possible to call `onlyOwner` functions anymore. Can only be called by the current owner. NOTE: Renouncing ownership will leave the contract without an owner, thereby removing any functionality that is only available to the owner."
      },
      "shares(address)": {
        "details": "Getter for the amount of shares held by an account."
      },
      "symbol()": {
        "details": "Returns the symbol of the token, usually a shorter version of the name."
      },
      "totalReleased()": {
        "details": "Getter for the total amount of Ether already released."
      },
      "totalReleased(address)": {
        "details": "Getter for the total amount of `token` already released. `token` should be the address of an IERC20 contract."
      },
      "totalShares()": {
        "details": "Getter for the total shares held by payees."
      },
      "totalSupply()": {
        "details": "See {IERC20-totalSupply}."
      },
      "transfer(address,uint256)": {
        "details": "See {IERC20-transfer}. Requirements: - `to` cannot be the zero address. - the caller must have a balance of at least `amount`."
      },
      "transferFrom(address,address,uint256)": {
        "details": "See {IERC20-transferFrom}. Emits an {Approval} event indicating the updated allowance. This is not required by the EIP. See the note at the beginning of {ERC20}. NOTE: Does not update the allowance if the current allowance is the maximum `uint256`. Requirements: - `from` and `to` cannot be the zero address. - `from` must have a balance of at least `amount`. - the caller must have allowance for ``from``'s tokens of at least `amount`."
      },
      "transferOwnership(address)": {
        "details": "Transfers ownership of the contract to a new account (`newOwner`). Can only be called by the current owner."
      }
    },
    "version": 1
  },
  "userdoc": {
    "kind": "user",
    "methods": {},
    "version": 1
  }
}