{
  "contractName": "FYTE",
  "abi": [
    {
      "inputs": [
        {
          "internalType": "string",
          "name": "name",
          "type": "string"
        },
        {
          "internalType": "string",
          "name": "symbol",
          "type": "string"
        }
      ],
      "stateMutability": "nonpayable",
      "type": "constructor"
    },
    {
      "anonymous": false,
      "inputs": [
        {
          "indexed": true,
          "internalType": "address",
          "name": "owner",
          "type": "address"
        },
        {
          "indexed": true,
          "internalType": "address",
          "name": "spender",
          "type": "address"
        },
        {
          "indexed": false,
          "internalType": "uint256",
          "name": "value",
          "type": "uint256"
        }
      ],
      "name": "Approval",
      "type": "event"
    },
    {
      "anonymous": false,
      "inputs": [
        {
          "indexed": true,
          "internalType": "address",
          "name": "previousOwner",
          "type": "address"
        },
        {
          "indexed": true,
          "internalType": "address",
          "name": "newOwner",
          "type": "address"
        }
      ],
      "name": "OwnershipTransferred",
      "type": "event"
    },
    {
      "anonymous": false,
      "inputs": [
        {
          "indexed": true,
          "internalType": "address",
          "name": "from",
          "type": "address"
        },
        {
          "indexed": true,
          "internalType": "address",
          "name": "to",
          "type": "address"
        },
        {
          "indexed": false,
          "internalType": "uint256",
          "name": "value",
          "type": "uint256"
        }
      ],
      "name": "Transfer",
      "type": "event"
    },
    {
      "inputs": [],
      "name": "FYTECost",
      "outputs": [
        {
          "internalType": "uint256",
          "name": "",
          "type": "uint256"
        }
      ],
      "stateMutability": "view",
      "type": "function",
      "constant": true
    },
    {
      "inputs": [],
      "name": "V1Address",
      "outputs": [
        {
          "internalType": "address",
          "name": "",
          "type": "address"
        }
      ],
      "stateMutability": "view",
      "type": "function",
      "constant": true
    },
    {
      "inputs": [],
      "name": "V1ClaimAmount",
      "outputs": [
        {
          "internalType": "uint256",
          "name": "",
          "type": "uint256"
        }
      ],
      "stateMutability": "view",
      "type": "function",
      "constant": true
    },
    {
      "inputs": [],
      "name": "V2Address",
      "outputs": [
        {
          "internalType": "address",
          "name": "",
          "type": "address"
        }
      ],
      "stateMutability": "view",
      "type": "function",
      "constant": true
    },
    {
      "inputs": [],
      "name": "V2ClaimAmount",
      "outputs": [
        {
          "internalType": "uint256",
          "name": "",
          "type": "uint256"
        }
      ],
      "stateMutability": "view",
      "type": "function",
      "constant": true
    },
    {
      "inputs": [
        {
          "internalType": "address",
          "name": "owner",
          "type": "address"
        },
        {
          "internalType": "address",
          "name": "spender",
          "type": "address"
        }
      ],
      "name": "allowance",
      "outputs": [
        {
          "internalType": "uint256",
          "name": "",
          "type": "uint256"
        }
      ],
      "stateMutability": "view",
      "type": "function",
      "constant": true
    },
    {
      "inputs": [
        {
          "internalType": "address",
          "name": "spender",
          "type": "address"
        },
        {
          "internalType": "uint256",
          "name": "amount",
          "type": "uint256"
        }
      ],
      "name": "approve",
      "outputs": [
        {
          "internalType": "bool",
          "name": "",
          "type": "bool"
        }
      ],
      "stateMutability": "nonpayable",
      "type": "function"
    },
    {
      "inputs": [
        {
          "internalType": "address",
          "name": "account",
          "type": "address"
        }
      ],
      "name": "balanceOf",
      "outputs": [
        {
          "internalType": "uint256",
          "name": "",
          "type": "uint256"
        }
      ],
      "stateMutability": "view",
      "type": "function",
      "constant": true
    },
    {
      "inputs": [],
      "name": "decimals",
      "outputs": [
        {
          "internalType": "uint8",
          "name": "",
          "type": "uint8"
        }
      ],
      "stateMutability": "view",
      "type": "function",
      "constant": true
    },
    {
      "inputs": [
        {
          "internalType": "address",
          "name": "spender",
          "type": "address"
        },
        {
          "internalType": "uint256",
          "name": "subtractedValue",
          "type": "uint256"
        }
      ],
      "name": "decreaseAllowance",
      "outputs": [
        {
          "internalType": "bool",
          "name": "",
          "type": "bool"
        }
      ],
      "stateMutability": "nonpayable",
      "type": "function"
    },
    {
      "inputs": [
        {
          "internalType": "address",
          "name": "spender",
          "type": "address"
        },
        {
          "internalType": "uint256",
          "name": "addedValue",
          "type": "uint256"
        }
      ],
      "name": "increaseAllowance",
      "outputs": [
        {
          "internalType": "bool",
          "name": "",
          "type": "bool"
        }
      ],
      "stateMutability": "nonpayable",
      "type": "function"
    },
    {
      "inputs": [],
      "name": "name",
      "outputs": [
        {
          "internalType": "string",
          "name": "",
          "type": "string"
        }
      ],
      "stateMutability": "view",
      "type": "function",
      "constant": true
    },
    {
      "inputs": [],
      "name": "owner",
      "outputs": [
        {
          "internalType": "address",
          "name": "",
          "type": "address"
        }
      ],
      "stateMutability": "view",
      "type": "function",
      "constant": true
    },
    {
      "inputs": [],
      "name": "renounceOwnership",
      "outputs": [],
      "stateMutability": "nonpayable",
      "type": "function"
    },
    {
      "inputs": [],
      "name": "symbol",
      "outputs": [
        {
          "internalType": "string",
          "name": "",
          "type": "string"
        }
      ],
      "stateMutability": "view",
      "type": "function",
      "constant": true
    },
    {
      "inputs": [],
      "name": "totalSupply",
      "outputs": [
        {
          "internalType": "uint256",
          "name": "",
          "type": "uint256"
        }
      ],
      "stateMutability": "view",
      "type": "function",
      "constant": true
    },
    {
      "inputs": [
        {
          "internalType": "address",
          "name": "to",
          "type": "address"
        },
        {
          "internalType": "uint256",
          "name": "amount",
          "type": "uint256"
        }
      ],
      "name": "transfer",
      "outputs": [
        {
          "internalType": "bool",
          "name": "",
          "type": "bool"
        }
      ],
      "stateMutability": "nonpayable",
      "type": "function"
    },
    {
      "inputs": [
        {
          "internalType": "address",
          "name": "from",
          "type": "address"
        },
        {
          "internalType": "address",
          "name": "to",
          "type": "address"
        },
        {
          "internalType": "uint256",
          "name": "amount",
          "type": "uint256"
        }
      ],
      "name": "transferFrom",
      "outputs": [
        {
          "internalType": "bool",
          "name": "",
          "type": "bool"
        }
      ],
      "stateMutability": "nonpayable",
      "type": "function"
    },
    {
      "inputs": [
        {
          "internalType": "address",
          "name": "newOwner",
          "type": "address"
        }
      ],
      "name": "transferOwnership",
      "outputs": [],
      "stateMutability": "nonpayable",
      "type": "function"
    },
    {
      "inputs": [],
      "name": "Claim",
      "outputs": [
        {
          "internalType": "uint256",
          "name": "",
          "type": "uint256"
        }
      ],
      "stateMutability": "nonpayable",
      "type": "function"
    },
    {
      "inputs": [
        {
          "internalType": "uint256",
          "name": "mintAmount",
          "type": "uint256"
        }
      ],
      "name": "Buy",
      "outputs": [],
      "stateMutability": "payable",
      "type": "function",
      "payable": true
    },
    {
      "inputs": [
        {
          "internalType": "uint256",
          "name": "mintAmount",
          "type": "uint256"
        }
      ],
      "name": "OwnerMint",
      "outputs": [],
      "stateMutability": "nonpayable",
      "type": "function"
    },
    {
      "inputs": [
        {
          "internalType": "address",
          "name": "NewV1Address",
          "type": "address"
        }
      ],
      "name": "changeV1Address",
      "outputs": [],
      "stateMutability": "nonpayable",
      "type": "function"
    },
    {
      "inputs": [
        {
          "internalType": "address",
          "name": "NewV2Address",
          "type": "address"
        }
      ],
      "name": "changeV2Address",
      "outputs": [],
      "stateMutability": "nonpayable",
      "type": "function"
    },
    {
      "inputs": [
        {
          "internalType": "uint256",
          "name": "NewV1Claim",
          "type": "uint256"
        }
      ],
      "name": "changeV1Claim",
      "outputs": [],
      "stateMutability": "nonpayable",
      "type": "function"
    },
    {
      "inputs": [
        {
          "internalType": "uint256",
          "name": "NewV2Claim",
          "type": "uint256"
        }
      ],
      "name": "changeV2Claim",
      "outputs": [],
      "stateMutability": "nonpayable",
      "type": "function"
    },
    {
      "inputs": [
        {
          "internalType": "uint256",
          "name": "NewFYTECost",
          "type": "uint256"
        }
      ],
      "name": "changeFYTECost",
      "outputs": [],
      "stateMutability": "nonpayable",
      "type": "function"
    },
    {
      "inputs": [
        {
          "internalType": "uint256",
          "name": "NewWaitTime",
          "type": "uint256"
        }
      ],
      "name": "changeWaitTime",
      "outputs": [],
      "stateMutability": "nonpayable",
      "type": "function"
    }
  ],
  "bytecode": "0x608060405273b0871457ed9812e56083072e8251991e58377c84600660006101000a81548173ffffffffffffffffffffffffffffffffffffffff021916908373ffffffffffffffffffffffffffffffffffffffff16021790555073449d0c8bb64269b263e8670f04ba1059f12c38d2600760006101000a81548173ffffffffffffffffffffffffffffffffffffffff021916908373ffffffffffffffffffffffffffffffffffffffff16021790555060016008556001600955670de0b6b3a7640000600a5562015180600c55348015620000d857600080fd5b5060405162002877380380620028778339818101604052810190620000fe9190620003b9565b8181816003908162000111919062000689565b50806004908162000123919062000689565b505050620001466200013a6200014e60201b60201c565b6200015660201b60201c565b505062000770565b600033905090565b6000600560009054906101000a900473ffffffffffffffffffffffffffffffffffffffff16905081600560006101000a81548173ffffffffffffffffffffffffffffffffffffffff021916908373ffffffffffffffffffffffffffffffffffffffff1602179055508173ffffffffffffffffffffffffffffffffffffffff168173ffffffffffffffffffffffffffffffffffffffff167f8be0079c531659141344cd1fd0a4f28419497f9722a3daafe3b4186f6b6457e060405160405180910390a35050565b6000604051905090565b600080fd5b600080fd5b600080fd5b600080fd5b6000601f19601f8301169050919050565b7f4e487b7100000000000000000000000000000000000000000000000000000000600052604160045260246000fd5b62000285826200023a565b810181811067ffffffffffffffff82111715620002a757620002a66200024b565b5b80604052505050565b6000620002bc6200021c565b9050620002ca82826200027a565b919050565b600067ffffffffffffffff821115620002ed57620002ec6200024b565b5b620002f8826200023a565b9050602081019050919050565b60005b838110156200032557808201518184015260208101905062000308565b8381111562000335576000848401525b50505050565b6000620003526200034c84620002cf565b620002b0565b90508281526020810184848401111562000371576200037062000235565b5b6200037e84828562000305565b509392505050565b600082601f8301126200039e576200039d62000230565b5b8151620003b08482602086016200033b565b91505092915050565b60008060408385031215620003d357620003d262000226565b5b600083015167ffffffffffffffff811115620003f457620003f36200022b565b5b620004028582860162000386565b925050602083015167ffffffffffffffff8111156200042657620004256200022b565b5b620004348582860162000386565b9150509250929050565b600081519050919050565b7f4e487b7100000000000000000000000000000000000000000000000000000000600052602260045260246000fd5b600060028204905060018216806200049157607f821691505b602082108103620004a757620004a662000449565b5b50919050565b60008190508160005260206000209050919050565b60006020601f8301049050919050565b600082821b905092915050565b600060088302620005117fffffffffffffffffffffffffffffffffffffffffffffffffffffffffffffffff82620004d2565b6200051d8683620004d2565b95508019841693508086168417925050509392505050565b6000819050919050565b6000819050919050565b60006200056a620005646200055e8462000535565b6200053f565b62000535565b9050919050565b6000819050919050565b620005868362000549565b6200059e620005958262000571565b848454620004df565b825550505050565b600090565b620005b5620005a6565b620005c28184846200057b565b505050565b5b81811015620005ea57620005de600082620005ab565b600181019050620005c8565b5050565b601f82111562000639576200060381620004ad565b6200060e84620004c2565b810160208510156200061e578190505b620006366200062d85620004c2565b830182620005c7565b50505b505050565b600082821c905092915050565b60006200065e600019846008026200063e565b1980831691505092915050565b60006200067983836200064b565b9150826002028217905092915050565b62000694826200043e565b67ffffffffffffffff811115620006b057620006af6200024b565b5b620006bc825462000478565b620006c9828285620005ee565b600060209050601f831160018114620007015760008415620006ec578287015190505b620006f885826200066b565b86555062000768565b601f1984166200071186620004ad565b60005b828110156200073b5784890151825560018201915060208501945060208101905062000714565b868310156200075b578489015162000757601f8916826200064b565b8355505b6001600288020188555050505b505050505050565b6120f780620007806000396000f3fe6080604052600436106101b65760003560e01c80634bb2efb6116100ec57806395d89b411161008a578063ace6c6ad11610064578063ace6c6ad146105fe578063b983a38a14610629578063dd62ed3e14610654578063f2fde38b14610691576101b6565b806395d89b4114610559578063a457c2d714610584578063a9059cbb146105c1576101b6565b8063715018a6116100c6578063715018a6146104c557806389ead1cf146104dc5780638da5cb5b1461050557806394e96f0514610530576101b6565b80634bb2efb61461043657806350e639751461045f57806370a0823114610488576101b6565b806323b872dd116101595780633158952e116101335780633158952e1461038757806339509351146103b25780633e328218146103ef57806345830c471461040b576101b6565b806323b872dd146102f65780633004711b14610333578063313ce5671461035c576101b6565b8063095ea7b311610195578063095ea7b31461023a5780631618c8df1461027757806318160ddd146102a05780631bdda963146102cb576101b6565b806279f9f7146101bb57806306fdde03146101e657806306fe221214610211575b600080fd5b3480156101c757600080fd5b506101d06106ba565b6040516101dd91906116a1565b60405180910390f35b3480156101f257600080fd5b506101fb6106c0565b6040516102089190611755565b60405180910390f35b34801561021d57600080fd5b50610238600480360381019061023391906117a8565b610752565b005b34801561024657600080fd5b50610261600480360381019061025c9190611833565b610764565b60405161026e919061188e565b60405180910390f35b34801561028357600080fd5b5061029e600480360381019061029991906117a8565b610787565b005b3480156102ac57600080fd5b506102b561079c565b6040516102c291906116a1565b60405180910390f35b3480156102d757600080fd5b506102e06107a6565b6040516102ed91906116a1565b60405180910390f35b34801561030257600080fd5b5061031d600480360381019061031891906118a9565b6107ac565b60405161032a919061188e565b60405180910390f35b34801561033f57600080fd5b5061035a600480360381019061035591906117a8565b6107db565b005b34801561036857600080fd5b506103716107ed565b60405161037e9190611918565b60405180910390f35b34801561039357600080fd5b5061039c6107f6565b6040516103a991906116a1565b60405180910390f35b3480156103be57600080fd5b506103d960048036038101906103d49190611833565b610adc565b6040516103e6919061188e565b60405180910390f35b610409600480360381019061040491906117a8565b610b13565b005b34801561041757600080fd5b50610420610b35565b60405161042d91906116a1565b60405180910390f35b34801561044257600080fd5b5061045d600480360381019061045891906117a8565b610b3b565b005b34801561046b57600080fd5b5061048660048036038101906104819190611933565b610b4d565b005b34801561049457600080fd5b506104af60048036038101906104aa9190611933565b610b99565b6040516104bc91906116a1565b60405180910390f35b3480156104d157600080fd5b506104da610be1565b005b3480156104e857600080fd5b5061050360048036038101906104fe91906117a8565b610bf5565b005b34801561051157600080fd5b5061051a610c07565b604051610527919061196f565b60405180910390f35b34801561053c57600080fd5b5061055760048036038101906105529190611933565b610c31565b005b34801561056557600080fd5b5061056e610c7d565b60405161057b9190611755565b60405180910390f35b34801561059057600080fd5b506105ab60048036038101906105a69190611833565b610d0f565b6040516105b8919061188e565b60405180910390f35b3480156105cd57600080fd5b506105e860048036038101906105e39190611833565b610d86565b6040516105f5919061188e565b60405180910390f35b34801561060a57600080fd5b50610613610da9565b604051610620919061196f565b60405180910390f35b34801561063557600080fd5b5061063e610dcf565b60405161064b919061196f565b60405180910390f35b34801561066057600080fd5b5061067b6004803603810190610676919061198a565b610df5565b60405161068891906116a1565b60405180910390f35b34801561069d57600080fd5b506106b860048036038101906106b39190611933565b610e7c565b005b60085481565b6060600380546106cf906119f9565b80601f01602080910402602001604051908101604052809291908181526020018280546106fb906119f9565b80156107485780601f1061071d57610100808354040283529160200191610748565b820191906000526020600020905b81548152906001019060200180831161072b57829003601f168201915b5050505050905090565b61075a610eff565b80600c8190555050565b60008061076f610f7d565b905061077c818585610f85565b600191505092915050565b61078f610eff565b610799338261114e565b50565b6000600254905090565b60095481565b6000806107b7610f7d565b90506107c48582856112ad565b6107cf858585611339565b60019150509392505050565b6107e3610eff565b80600a8190555050565b60006012905090565b600080600b60003373ffffffffffffffffffffffffffffffffffffffff1673ffffffffffffffffffffffffffffffffffffffff168152602001908152602001600020549050600c54814261084a9190611a59565b10610ad35742600b60003373ffffffffffffffffffffffffffffffffffffffff1673ffffffffffffffffffffffffffffffffffffffff168152602001908152602001600020819055506000600760009054906101000a900473ffffffffffffffffffffffffffffffffffffffff1690506000600660009054906101000a900473ffffffffffffffffffffffffffffffffffffffff16905060008273ffffffffffffffffffffffffffffffffffffffff166370a08231336040518263ffffffff1660e01b815260040161091c919061196f565b602060405180830381865afa158015610939573d6000803e3d6000fd5b505050506040513d601f19601f8201168201806040525081019061095d9190611aa2565b905060008273ffffffffffffffffffffffffffffffffffffffff166370a08231336040518263ffffffff1660e01b815260040161099a919061196f565b602060405180830381865afa1580156109b7573d6000803e3d6000fd5b505050506040513d601f19601f820116820180604052508101906109db9190611aa2565b90506000600854836109ed9190611acf565b1115610a0b57610a0a3360085484610a059190611acf565b61114e565b5b600060095482610a1b9190611acf565b1115610a3957610a383360095483610a339190611acf565b61114e565b5b8373ffffffffffffffffffffffffffffffffffffffff166370a082317384e23c62c17104e6ca670973595e0bef33b87adf6040518263ffffffff1660e01b8152600401610a86919061196f565b602060405180830381865afa158015610aa3573d6000803e3d6000fd5b505050506040513d601f19601f82011682018060405250810190610ac79190611aa2565b95505050505050610ad9565b60039150505b90565b600080610ae7610f7d565b9050610b08818585610af98589610df5565b610b039190611b29565b610f85565b600191505092915050565b600a5481610b219190611acf565b3410610b3257610b31338261114e565b5b50565b600a5481565b610b43610eff565b8060088190555050565b610b55610eff565b80600660006101000a81548173ffffffffffffffffffffffffffffffffffffffff021916908373ffffffffffffffffffffffffffffffffffffffff16021790555050565b60008060008373ffffffffffffffffffffffffffffffffffffffff1673ffffffffffffffffffffffffffffffffffffffff168152602001908152602001600020549050919050565b610be9610eff565b610bf360006115b8565b565b610bfd610eff565b8060098190555050565b6000600560009054906101000a900473ffffffffffffffffffffffffffffffffffffffff16905090565b610c39610eff565b80600760006101000a81548173ffffffffffffffffffffffffffffffffffffffff021916908373ffffffffffffffffffffffffffffffffffffffff16021790555050565b606060048054610c8c906119f9565b80601f0160208091040260200160405190810160405280929190818152602001828054610cb8906119f9565b8015610d055780601f10610cda57610100808354040283529160200191610d05565b820191906000526020600020905b815481529060010190602001808311610ce857829003601f168201915b5050505050905090565b600080610d1a610f7d565b90506000610d288286610df5565b905083811015610d6d576040517f08c379a0000000000000000000000000000000000000000000000000000000008152600401610d6490611bf1565b60405180910390fd5b610d7a8286868403610f85565b60019250505092915050565b600080610d91610f7d565b9050610d9e818585611339565b600191505092915050565b600760009054906101000a900473ffffffffffffffffffffffffffffffffffffffff1681565b600660009054906101000a900473ffffffffffffffffffffffffffffffffffffffff1681565b6000600160008473ffffffffffffffffffffffffffffffffffffffff1673ffffffffffffffffffffffffffffffffffffffff16815260200190815260200160002060008373ffffffffffffffffffffffffffffffffffffffff1673ffffffffffffffffffffffffffffffffffffffff16815260200190815260200160002054905092915050565b610e84610eff565b600073ffffffffffffffffffffffffffffffffffffffff168173ffffffffffffffffffffffffffffffffffffffff1603610ef3576040517f08c379a0000000000000000000000000000000000000000000000000000000008152600401610eea90611c83565b60405180910390fd5b610efc816115b8565b50565b610f07610f7d565b73ffffffffffffffffffffffffffffffffffffffff16610f25610c07565b73ffffffffffffffffffffffffffffffffffffffff1614610f7b576040517f08c379a0000000000000000000000000000000000000000000000000000000008152600401610f7290611cef565b60405180910390fd5b565b600033905090565b600073ffffffffffffffffffffffffffffffffffffffff168373ffffffffffffffffffffffffffffffffffffffff1603610ff4576040517f08c379a0000000000000000000000000000000000000000000000000000000008152600401610feb90611d81565b60405180910390fd5b600073ffffffffffffffffffffffffffffffffffffffff168273ffffffffffffffffffffffffffffffffffffffff1603611063576040517f08c379a000000000000000000000000000000000000000000000000000000000815260040161105a90611e13565b60405180910390fd5b80600160008573ffffffffffffffffffffffffffffffffffffffff1673ffffffffffffffffffffffffffffffffffffffff16815260200190815260200160002060008473ffffffffffffffffffffffffffffffffffffffff1673ffffffffffffffffffffffffffffffffffffffff168152602001908152602001600020819055508173ffffffffffffffffffffffffffffffffffffffff168373ffffffffffffffffffffffffffffffffffffffff167f8c5be1e5ebec7d5bd14f71427d1e84f3dd0314c0f7b2291e5b200ac8c7c3b9258360405161114191906116a1565b60405180910390a3505050565b600073ffffffffffffffffffffffffffffffffffffffff168273ffffffffffffffffffffffffffffffffffffffff16036111bd576040517f08c379a00000000000000000000000000000000000000000000000000000000081526004016111b490611e7f565b60405180910390fd5b6111c96000838361167e565b80600260008282546111db9190611b29565b92505081905550806000808473ffffffffffffffffffffffffffffffffffffffff1673ffffffffffffffffffffffffffffffffffffffff16815260200190815260200160002060008282546112309190611b29565b925050819055508173ffffffffffffffffffffffffffffffffffffffff16600073ffffffffffffffffffffffffffffffffffffffff167fddf252ad1be2c89b69c2b068fc378daa952ba7f163c4a11628f55a4df523b3ef8360405161129591906116a1565b60405180910390a36112a960008383611683565b5050565b60006112b98484610df5565b90507fffffffffffffffffffffffffffffffffffffffffffffffffffffffffffffffff81146113335781811015611325576040517f08c379a000000000000000000000000000000000000000000000000000000000815260040161131c90611eeb565b60405180910390fd5b6113328484848403610f85565b5b50505050565b600073ffffffffffffffffffffffffffffffffffffffff168373ffffffffffffffffffffffffffffffffffffffff16036113a8576040517f08c379a000000000000000000000000000000000000000000000000000000000815260040161139f90611f7d565b60405180910390fd5b600073ffffffffffffffffffffffffffffffffffffffff168273ffffffffffffffffffffffffffffffffffffffff1603611417576040517f08c379a000000000000000000000000000000000000000000000000000000000815260040161140e9061200f565b60405180910390fd5b61142283838361167e565b60008060008573ffffffffffffffffffffffffffffffffffffffff1673ffffffffffffffffffffffffffffffffffffffff168152602001908152602001600020549050818110156114a8576040517f08c379a000000000000000000000000000000000000000000000000000000000815260040161149f906120a1565b60405180910390fd5b8181036000808673ffffffffffffffffffffffffffffffffffffffff1673ffffffffffffffffffffffffffffffffffffffff16815260200190815260200160002081905550816000808573ffffffffffffffffffffffffffffffffffffffff1673ffffffffffffffffffffffffffffffffffffffff168152602001908152602001600020600082825461153b9190611b29565b925050819055508273ffffffffffffffffffffffffffffffffffffffff168473ffffffffffffffffffffffffffffffffffffffff167fddf252ad1be2c89b69c2b068fc378daa952ba7f163c4a11628f55a4df523b3ef8460405161159f91906116a1565b60405180910390a36115b2848484611683565b50505050565b6000600560009054906101000a900473ffffffffffffffffffffffffffffffffffffffff16905081600560006101000a81548173ffffffffffffffffffffffffffffffffffffffff021916908373ffffffffffffffffffffffffffffffffffffffff1602179055508173ffffffffffffffffffffffffffffffffffffffff168173ffffffffffffffffffffffffffffffffffffffff167f8be0079c531659141344cd1fd0a4f28419497f9722a3daafe3b4186f6b6457e060405160405180910390a35050565b505050565b505050565b6000819050919050565b61169b81611688565b82525050565b60006020820190506116b66000830184611692565b92915050565b600081519050919050565b600082825260208201905092915050565b60005b838110156116f65780820151818401526020810190506116db565b83811115611705576000848401525b50505050565b6000601f19601f8301169050919050565b6000611727826116bc565b61173181856116c7565b93506117418185602086016116d8565b61174a8161170b565b840191505092915050565b6000602082019050818103600083015261176f818461171c565b905092915050565b600080fd5b61178581611688565b811461179057600080fd5b50565b6000813590506117a28161177c565b92915050565b6000602082840312156117be576117bd611777565b5b60006117cc84828501611793565b91505092915050565b600073ffffffffffffffffffffffffffffffffffffffff82169050919050565b6000611800826117d5565b9050919050565b611810816117f5565b811461181b57600080fd5b50565b60008135905061182d81611807565b92915050565b6000806040838503121561184a57611849611777565b5b60006118588582860161181e565b925050602061186985828601611793565b9150509250929050565b60008115159050919050565b61188881611873565b82525050565b60006020820190506118a3600083018461187f565b92915050565b6000806000606084860312156118c2576118c1611777565b5b60006118d08682870161181e565b93505060206118e18682870161181e565b92505060406118f286828701611793565b9150509250925092565b600060ff82169050919050565b611912816118fc565b82525050565b600060208201905061192d6000830184611909565b92915050565b60006020828403121561194957611948611777565b5b60006119578482850161181e565b91505092915050565b611969816117f5565b82525050565b60006020820190506119846000830184611960565b92915050565b600080604083850312156119a1576119a0611777565b5b60006119af8582860161181e565b92505060206119c08582860161181e565b9150509250929050565b7f4e487b7100000000000000000000000000000000000000000000000000000000600052602260045260246000fd5b60006002820490506001821680611a1157607f821691505b602082108103611a2457611a236119ca565b5b50919050565b7f4e487b7100000000000000000000000000000000000000000000000000000000600052601160045260246000fd5b6000611a6482611688565b9150611a6f83611688565b925082821015611a8257611a81611a2a565b5b828203905092915050565b600081519050611a9c8161177c565b92915050565b600060208284031215611ab857611ab7611777565b5b6000611ac684828501611a8d565b91505092915050565b6000611ada82611688565b9150611ae583611688565b9250817fffffffffffffffffffffffffffffffffffffffffffffffffffffffffffffffff0483118215151615611b1e57611b1d611a2a565b5b828202905092915050565b6000611b3482611688565b9150611b3f83611688565b9250827fffffffffffffffffffffffffffffffffffffffffffffffffffffffffffffffff03821115611b7457611b73611a2a565b5b828201905092915050565b7f45524332303a2064656372656173656420616c6c6f77616e63652062656c6f7760008201527f207a65726f000000000000000000000000000000000000000000000000000000602082015250565b6000611bdb6025836116c7565b9150611be682611b7f565b604082019050919050565b60006020820190508181036000830152611c0a81611bce565b9050919050565b7f4f776e61626c653a206e6577206f776e657220697320746865207a65726f206160008201527f6464726573730000000000000000000000000000000000000000000000000000602082015250565b6000611c6d6026836116c7565b9150611c7882611c11565b604082019050919050565b60006020820190508181036000830152611c9c81611c60565b9050919050565b7f4f776e61626c653a2063616c6c6572206973206e6f7420746865206f776e6572600082015250565b6000611cd96020836116c7565b9150611ce482611ca3565b602082019050919050565b60006020820190508181036000830152611d0881611ccc565b9050919050565b7f45524332303a20617070726f76652066726f6d20746865207a65726f2061646460008201527f7265737300000000000000000000000000000000000000000000000000000000602082015250565b6000611d6b6024836116c7565b9150611d7682611d0f565b604082019050919050565b60006020820190508181036000830152611d9a81611d5e565b9050919050565b7f45524332303a20617070726f766520746f20746865207a65726f20616464726560008201527f7373000000000000000000000000000000000000000000000000000000000000602082015250565b6000611dfd6022836116c7565b9150611e0882611da1565b604082019050919050565b60006020820190508181036000830152611e2c81611df0565b9050919050565b7f45524332303a206d696e7420746f20746865207a65726f206164647265737300600082015250565b6000611e69601f836116c7565b9150611e7482611e33565b602082019050919050565b60006020820190508181036000830152611e9881611e5c565b9050919050565b7f45524332303a20696e73756666696369656e7420616c6c6f77616e6365000000600082015250565b6000611ed5601d836116c7565b9150611ee082611e9f565b602082019050919050565b60006020820190508181036000830152611f0481611ec8565b9050919050565b7f45524332303a207472616e736665722066726f6d20746865207a65726f20616460008201527f6472657373000000000000000000000000000000000000000000000000000000602082015250565b6000611f676025836116c7565b9150611f7282611f0b565b604082019050919050565b60006020820190508181036000830152611f9681611f5a565b9050919050565b7f45524332303a207472616e7366657220746f20746865207a65726f206164647260008201527f6573730000000000000000000000000000000000000000000000000000000000602082015250565b6000611ff96023836116c7565b915061200482611f9d565b604082019050919050565b6000602082019050818103600083015261202881611fec565b9050919050565b7f45524332303a207472616e7366657220616d6f756e742065786365656473206260008201527f616c616e63650000000000000000000000000000000000000000000000000000602082015250565b600061208b6026836116c7565b91506120968261202f565b604082019050919050565b600060208201905081810360008301526120ba8161207e565b905091905056fea2646970667358221220f84b14e2e1bd0eadbe6e1d1a53e0c2603e826f7fffa9b9a7ca05ed2d993dba6364736f6c634300080f0033",
  "immutableReferences": {},
  "source": "// SPDX-License-Identifier: MIT\npragma solidity ^0.8.0;\n\nimport \"../node_modules/@openzeppelin/contracts/token/ERC20/ERC20.sol\";\nimport \"../node_modules/@openzeppelin/contracts/token/ERC721/IERC721.sol\";\nimport \"../node_modules/@openzeppelin/contracts/access/Ownable.sol\";\n\n//note: could make this thing pausable and include some reentrancyGuard for good security\n\ninterface V1NFT is IERC721 {\n}\ninterface V2NFT is IERC721 {\n}\n\ncontract FYTE is ERC20, Ownable {\n    \n\n    address public V2Address=0xB0871457eD9812e56083072E8251991e58377C84; //is this where the contract for V2 is? \n    address public V1Address = 0x449d0c8BB64269b263e8670F04Ba1059f12c38D2;\n    uint256 public V1ClaimAmount=1;\n    uint256 public V2ClaimAmount=1;\n    uint256 public FYTECost = 1 ether;\n    mapping (address=>uint256) private ClaimDate; //mapping of addresses to time last claimed succuesfully. \n    uint256 private WaitTime  = 60*60*24;  //seconds in a day-- wait 24 hours between claims\n\n   \n\n    constructor(string memory name, string memory symbol) ERC20(name,symbol) {\n        //\n    }\n    //Allows users to claim a set amount of tokens daily depending on whether they own a V1 or V2 NFT\n    function Claim() public returns (uint256) {\n       \n        uint256 lastClaimDate = ClaimDate[msg.sender];\n        if(block.timestamp-lastClaimDate >= WaitTime) { //use timestamp on a large timescale is safe.\n            ClaimDate[msg.sender] = block.timestamp; //update the date first \n            V1NFT V1Contract = V1NFT(V1Address);\n            V2NFT V2Contract = V2NFT(V2Address);\n            //we control the location of these contracts, so we don't have to worry about re-entrancy\n            uint256 NFTCount1 = V1Contract.balanceOf(msg.sender); \n            uint256 NFTCount2 = V2Contract.balanceOf(msg.sender);\n            if(NFTCount1 * V1ClaimAmount > 0) {\n                _mint(msg.sender, NFTCount1 * V1ClaimAmount);\n            }\n            if(NFTCount2 * V2ClaimAmount > 0) {\n                _mint(msg.sender, NFTCount2 * V2ClaimAmount);\n            }\n            return V1Contract.balanceOf(0x84e23c62c17104e6cA670973595E0BeF33b87ADf);\n\n            //mint tokens based on V1 and V2 tokens.\n        }\n        else {\n            return 3; //already claimed their tokens. Maybe change this to return time until they can claim. \n        }\n\n\n    }\n    //Allows users to buy a set number of tokens at a fixed price. \n    function Buy(uint256 mintAmount) public payable { \n        //NOTE: Solidity 0.8.0 and above will check for overflows, so we are safe to multiply inputAmount\n\n        if(msg.value >= mintAmount * FYTECost) {\n             _mint(msg.sender,mintAmount);\n        }\n        \n    }\n    function OwnerMint(uint256 mintAmount) public onlyOwner {\n         _mint(msg.sender,mintAmount);\n    }\n    //allows changing of variables, will include other ones over time\n    function changeV1Address(address NewV1Address) public onlyOwner {\n       V1Address = NewV1Address;\n    }\n    function changeV2Address(address NewV2Address) public onlyOwner {\n       V2Address = NewV2Address;\n    }\n    function changeV1Claim(uint256 NewV1Claim) public onlyOwner {\n       V1ClaimAmount =NewV1Claim;\n    }\n    function changeV2Claim(uint256 NewV2Claim) public onlyOwner {\n       V2ClaimAmount =NewV2Claim;\n    }\n    function changeFYTECost(uint256 NewFYTECost) public onlyOwner {\n        FYTECost = NewFYTECost;\n    }\n    function changeWaitTime(uint256 NewWaitTime) public onlyOwner {\n        WaitTime = NewWaitTime;\n    }\n    \n\n\n\n   \n}",
  "sourcePath": "/Users/cbriggs/Desktop/SolidityPractice/contracts/Gems.sol",
  "compiler": {
    "name": "solc",
    "version": "0.8.15+commit.e14f2714.Emscripten.clang"
  },
  "schemaVersion": "3.4.8",
  "updatedAt": "2022-08-12T20:17:07.395Z",
  "networkType": "ethereum",
  "devdoc": {
    "kind": "dev",
    "methods": {
      "allowance(address,address)": {
        "details": "See {IERC20-allowance}."
      },
      "approve(address,uint256)": {
        "details": "See {IERC20-approve}. NOTE: If `amount` is the maximum `uint256`, the allowance is not updated on `transferFrom`. This is semantically equivalent to an infinite approval. Requirements: - `spender` cannot be the zero address."
      },
      "balanceOf(address)": {
        "details": "See {IERC20-balanceOf}."
      },
      "decimals()": {
        "details": "Returns the number of decimals used to get its user representation. For example, if `decimals` equals `2`, a balance of `505` tokens should be displayed to a user as `5.05` (`505 / 10 ** 2`). Tokens usually opt for a value of 18, imitating the relationship between Ether and Wei. This is the value {ERC20} uses, unless this function is overridden; NOTE: This information is only used for _display_ purposes: it in no way affects any of the arithmetic of the contract, including {IERC20-balanceOf} and {IERC20-transfer}."
      },
      "decreaseAllowance(address,uint256)": {
        "details": "Atomically decreases the allowance granted to `spender` by the caller. This is an alternative to {approve} that can be used as a mitigation for problems described in {IERC20-approve}. Emits an {Approval} event indicating the updated allowance. Requirements: - `spender` cannot be the zero address. - `spender` must have allowance for the caller of at least `subtractedValue`."
      },
      "increaseAllowance(address,uint256)": {
        "details": "Atomically increases the allowance granted to `spender` by the caller. This is an alternative to {approve} that can be used as a mitigation for problems described in {IERC20-approve}. Emits an {Approval} event indicating the updated allowance. Requirements: - `spender` cannot be the zero address."
      },
      "name()": {
        "details": "Returns the name of the token."
      },
      "owner()": {
        "details": "Returns the address of the current owner."
      },
      "renounceOwnership()": {
        "details": "Leaves the contract without owner. It will not be possible to call `onlyOwner` functions anymore. Can only be called by the current owner. NOTE: Renouncing ownership will leave the contract without an owner, thereby removing any functionality that is only available to the owner."
      },
      "symbol()": {
        "details": "Returns the symbol of the token, usually a shorter version of the name."
      },
      "totalSupply()": {
        "details": "See {IERC20-totalSupply}."
      },
      "transfer(address,uint256)": {
        "details": "See {IERC20-transfer}. Requirements: - `to` cannot be the zero address. - the caller must have a balance of at least `amount`."
      },
      "transferFrom(address,address,uint256)": {
        "details": "See {IERC20-transferFrom}. Emits an {Approval} event indicating the updated allowance. This is not required by the EIP. See the note at the beginning of {ERC20}. NOTE: Does not update the allowance if the current allowance is the maximum `uint256`. Requirements: - `from` and `to` cannot be the zero address. - `from` must have a balance of at least `amount`. - the caller must have allowance for ``from``'s tokens of at least `amount`."
      },
      "transferOwnership(address)": {
        "details": "Transfers ownership of the contract to a new account (`newOwner`). Can only be called by the current owner."
      }
    },
    "version": 1
  },
  "userdoc": {
    "kind": "user",
    "methods": {},
    "version": 1
  }
}