{
  "contractName": "Token",
  "abi": [
    {
      "inputs": [
        {
          "internalType": "string",
          "name": "name",
          "type": "string"
        },
        {
          "internalType": "string",
          "name": "symbol",
          "type": "string"
        }
      ],
      "stateMutability": "nonpayable",
      "type": "constructor"
    },
    {
      "anonymous": false,
      "inputs": [
        {
          "indexed": true,
          "internalType": "address",
          "name": "owner",
          "type": "address"
        },
        {
          "indexed": true,
          "internalType": "address",
          "name": "approved",
          "type": "address"
        },
        {
          "indexed": true,
          "internalType": "uint256",
          "name": "tokenId",
          "type": "uint256"
        }
      ],
      "name": "Approval",
      "type": "event"
    },
    {
      "anonymous": false,
      "inputs": [
        {
          "indexed": true,
          "internalType": "address",
          "name": "owner",
          "type": "address"
        },
        {
          "indexed": true,
          "internalType": "address",
          "name": "operator",
          "type": "address"
        },
        {
          "indexed": false,
          "internalType": "bool",
          "name": "approved",
          "type": "bool"
        }
      ],
      "name": "ApprovalForAll",
      "type": "event"
    },
    {
      "anonymous": false,
      "inputs": [
        {
          "indexed": true,
          "internalType": "address",
          "name": "previousOwner",
          "type": "address"
        },
        {
          "indexed": true,
          "internalType": "address",
          "name": "newOwner",
          "type": "address"
        }
      ],
      "name": "OwnershipTransferred",
      "type": "event"
    },
    {
      "anonymous": false,
      "inputs": [
        {
          "indexed": true,
          "internalType": "address",
          "name": "from",
          "type": "address"
        },
        {
          "indexed": true,
          "internalType": "address",
          "name": "to",
          "type": "address"
        },
        {
          "indexed": true,
          "internalType": "uint256",
          "name": "tokenId",
          "type": "uint256"
        }
      ],
      "name": "Transfer",
      "type": "event"
    },
    {
      "inputs": [
        {
          "internalType": "address",
          "name": "to",
          "type": "address"
        },
        {
          "internalType": "uint256",
          "name": "tokenId",
          "type": "uint256"
        }
      ],
      "name": "approve",
      "outputs": [],
      "stateMutability": "nonpayable",
      "type": "function"
    },
    {
      "inputs": [
        {
          "internalType": "address",
          "name": "owner",
          "type": "address"
        }
      ],
      "name": "balanceOf",
      "outputs": [
        {
          "internalType": "uint256",
          "name": "",
          "type": "uint256"
        }
      ],
      "stateMutability": "view",
      "type": "function"
    },
    {
      "inputs": [
        {
          "internalType": "uint256",
          "name": "tokenId",
          "type": "uint256"
        }
      ],
      "name": "getApproved",
      "outputs": [
        {
          "internalType": "address",
          "name": "",
          "type": "address"
        }
      ],
      "stateMutability": "view",
      "type": "function"
    },
    {
      "inputs": [
        {
          "internalType": "address",
          "name": "owner",
          "type": "address"
        },
        {
          "internalType": "address",
          "name": "operator",
          "type": "address"
        }
      ],
      "name": "isApprovedForAll",
      "outputs": [
        {
          "internalType": "bool",
          "name": "",
          "type": "bool"
        }
      ],
      "stateMutability": "view",
      "type": "function"
    },
    {
      "inputs": [],
      "name": "name",
      "outputs": [
        {
          "internalType": "string",
          "name": "",
          "type": "string"
        }
      ],
      "stateMutability": "view",
      "type": "function"
    },
    {
      "inputs": [],
      "name": "owner",
      "outputs": [
        {
          "internalType": "address",
          "name": "",
          "type": "address"
        }
      ],
      "stateMutability": "view",
      "type": "function"
    },
    {
      "inputs": [
        {
          "internalType": "uint256",
          "name": "tokenId",
          "type": "uint256"
        }
      ],
      "name": "ownerOf",
      "outputs": [
        {
          "internalType": "address",
          "name": "",
          "type": "address"
        }
      ],
      "stateMutability": "view",
      "type": "function"
    },
    {
      "inputs": [],
      "name": "renounceOwnership",
      "outputs": [],
      "stateMutability": "nonpayable",
      "type": "function"
    },
    {
      "inputs": [
        {
          "internalType": "address",
          "name": "from",
          "type": "address"
        },
        {
          "internalType": "address",
          "name": "to",
          "type": "address"
        },
        {
          "internalType": "uint256",
          "name": "tokenId",
          "type": "uint256"
        }
      ],
      "name": "safeTransferFrom",
      "outputs": [],
      "stateMutability": "nonpayable",
      "type": "function"
    },
    {
      "inputs": [
        {
          "internalType": "address",
          "name": "from",
          "type": "address"
        },
        {
          "internalType": "address",
          "name": "to",
          "type": "address"
        },
        {
          "internalType": "uint256",
          "name": "tokenId",
          "type": "uint256"
        },
        {
          "internalType": "bytes",
          "name": "data",
          "type": "bytes"
        }
      ],
      "name": "safeTransferFrom",
      "outputs": [],
      "stateMutability": "nonpayable",
      "type": "function"
    },
    {
      "inputs": [
        {
          "internalType": "address",
          "name": "operator",
          "type": "address"
        },
        {
          "internalType": "bool",
          "name": "approved",
          "type": "bool"
        }
      ],
      "name": "setApprovalForAll",
      "outputs": [],
      "stateMutability": "nonpayable",
      "type": "function"
    },
    {
      "inputs": [
        {
          "internalType": "bytes4",
          "name": "interfaceId",
          "type": "bytes4"
        }
      ],
      "name": "supportsInterface",
      "outputs": [
        {
          "internalType": "bool",
          "name": "",
          "type": "bool"
        }
      ],
      "stateMutability": "view",
      "type": "function"
    },
    {
      "inputs": [],
      "name": "symbol",
      "outputs": [
        {
          "internalType": "string",
          "name": "",
          "type": "string"
        }
      ],
      "stateMutability": "view",
      "type": "function"
    },
    {
      "inputs": [
        {
          "internalType": "uint256",
          "name": "tokenId",
          "type": "uint256"
        }
      ],
      "name": "tokenURI",
      "outputs": [
        {
          "internalType": "string",
          "name": "",
          "type": "string"
        }
      ],
      "stateMutability": "view",
      "type": "function"
    },
    {
      "inputs": [
        {
          "internalType": "address",
          "name": "from",
          "type": "address"
        },
        {
          "internalType": "address",
          "name": "to",
          "type": "address"
        },
        {
          "internalType": "uint256",
          "name": "tokenId",
          "type": "uint256"
        }
      ],
      "name": "transferFrom",
      "outputs": [],
      "stateMutability": "nonpayable",
      "type": "function"
    },
    {
      "inputs": [
        {
          "internalType": "address",
          "name": "newOwner",
          "type": "address"
        }
      ],
      "name": "transferOwnership",
      "outputs": [],
      "stateMutability": "nonpayable",
      "type": "function"
    },
    {
      "inputs": [],
      "name": "tokenID",
      "outputs": [
        {
          "internalType": "uint256",
          "name": "",
          "type": "uint256"
        }
      ],
      "stateMutability": "view",
      "type": "function"
    },
    {
      "inputs": [
        {
          "internalType": "uint256",
          "name": "maxUpdateTime",
          "type": "uint256"
        },
        {
          "internalType": "uint256",
          "name": "recoverTime",
          "type": "uint256"
        },
        {
          "internalType": "uint8",
          "name": "power",
          "type": "uint8"
        }
      ],
      "name": "mint",
      "outputs": [],
      "stateMutability": "nonpayable",
      "type": "function"
    },
    {
      "inputs": [
        {
          "internalType": "uint256",
          "name": "id",
          "type": "uint256"
        }
      ],
      "name": "getTokenDetails",
      "outputs": [
        {
          "components": [
            {
              "internalType": "uint256",
              "name": "lastCollect",
              "type": "uint256"
            },
            {
              "internalType": "uint256",
              "name": "maxUpdateTime",
              "type": "uint256"
            },
            {
              "internalType": "bool",
              "name": "alive",
              "type": "bool"
            },
            {
              "internalType": "uint256",
              "name": "recoverTime",
              "type": "uint256"
            },
            {
              "internalType": "uint8",
              "name": "power",
              "type": "uint8"
            },
            {
              "internalType": "uint256",
              "name": "deathTime",
              "type": "uint256"
            }
          ],
          "internalType": "struct Token.Fighter",
          "name": "",
          "type": "tuple"
        }
      ],
      "stateMutability": "view",
      "type": "function"
    },
    {
      "inputs": [
        {
          "components": [
            {
              "internalType": "uint256",
              "name": "lastCollect",
              "type": "uint256"
            },
            {
              "internalType": "uint256",
              "name": "maxUpdateTime",
              "type": "uint256"
            },
            {
              "internalType": "bool",
              "name": "alive",
              "type": "bool"
            },
            {
              "internalType": "uint256",
              "name": "recoverTime",
              "type": "uint256"
            },
            {
              "internalType": "uint8",
              "name": "power",
              "type": "uint8"
            },
            {
              "internalType": "uint256",
              "name": "deathTime",
              "type": "uint256"
            }
          ],
          "internalType": "struct Token.Fighter",
          "name": "fighter1",
          "type": "tuple"
        },
        {
          "components": [
            {
              "internalType": "uint256",
              "name": "lastCollect",
              "type": "uint256"
            },
            {
              "internalType": "uint256",
              "name": "maxUpdateTime",
              "type": "uint256"
            },
            {
              "internalType": "bool",
              "name": "alive",
              "type": "bool"
            },
            {
              "internalType": "uint256",
              "name": "recoverTime",
              "type": "uint256"
            },
            {
              "internalType": "uint8",
              "name": "power",
              "type": "uint8"
            },
            {
              "internalType": "uint256",
              "name": "deathTime",
              "type": "uint256"
            }
          ],
          "internalType": "struct Token.Fighter",
          "name": "fighter2",
          "type": "tuple"
        }
      ],
      "name": "fight",
      "outputs": [],
      "stateMutability": "nonpayable",
      "type": "function"
    },
    {
      "inputs": [
        {
          "internalType": "uint256",
          "name": "id",
          "type": "uint256"
        }
      ],
      "name": "kill",
      "outputs": [],
      "stateMutability": "nonpayable",
      "type": "function"
    },
    {
      "inputs": [
        {
          "internalType": "uint256",
          "name": "id",
          "type": "uint256"
        }
      ],
      "name": "revive",
      "outputs": [],
      "stateMutability": "nonpayable",
      "type": "function"
    },
    {
      "inputs": [
        {
          "internalType": "address",
          "name": "user",
          "type": "address"
        }
      ],
      "name": "getAllTokensFromUser",
      "outputs": [
        {
          "internalType": "uint256[]",
          "name": "",
          "type": "uint256[]"
        }
      ],
      "stateMutability": "view",
      "type": "function"
    }
  ],
  "bytecode": "0x60806040523480156200001157600080fd5b5060405162003b5e38038062003b5e8339818101604052810190620000379190620002f2565b818181600090816200004a9190620005c2565b5080600190816200005c9190620005c2565b5050506200007f620000736200008760201b60201c565b6200008f60201b60201c565b5050620006a9565b600033905090565b6000600660009054906101000a900473ffffffffffffffffffffffffffffffffffffffff16905081600660006101000a81548173ffffffffffffffffffffffffffffffffffffffff021916908373ffffffffffffffffffffffffffffffffffffffff1602179055508173ffffffffffffffffffffffffffffffffffffffff168173ffffffffffffffffffffffffffffffffffffffff167f8be0079c531659141344cd1fd0a4f28419497f9722a3daafe3b4186f6b6457e060405160405180910390a35050565b6000604051905090565b600080fd5b600080fd5b600080fd5b600080fd5b6000601f19601f8301169050919050565b7f4e487b7100000000000000000000000000000000000000000000000000000000600052604160045260246000fd5b620001be8262000173565b810181811067ffffffffffffffff82111715620001e057620001df62000184565b5b80604052505050565b6000620001f562000155565b9050620002038282620001b3565b919050565b600067ffffffffffffffff82111562000226576200022562000184565b5b620002318262000173565b9050602081019050919050565b60005b838110156200025e57808201518184015260208101905062000241565b838111156200026e576000848401525b50505050565b60006200028b620002858462000208565b620001e9565b905082815260208101848484011115620002aa57620002a96200016e565b5b620002b78482856200023e565b509392505050565b600082601f830112620002d757620002d662000169565b5b8151620002e984826020860162000274565b91505092915050565b600080604083850312156200030c576200030b6200015f565b5b600083015167ffffffffffffffff8111156200032d576200032c62000164565b5b6200033b85828601620002bf565b925050602083015167ffffffffffffffff8111156200035f576200035e62000164565b5b6200036d85828601620002bf565b9150509250929050565b600081519050919050565b7f4e487b7100000000000000000000000000000000000000000000000000000000600052602260045260246000fd5b60006002820490506001821680620003ca57607f821691505b602082108103620003e057620003df62000382565b5b50919050565b60008190508160005260206000209050919050565b60006020601f8301049050919050565b600082821b905092915050565b6000600883026200044a7fffffffffffffffffffffffffffffffffffffffffffffffffffffffffffffffff826200040b565b6200045686836200040b565b95508019841693508086168417925050509392505050565b6000819050919050565b6000819050919050565b6000620004a36200049d62000497846200046e565b62000478565b6200046e565b9050919050565b6000819050919050565b620004bf8362000482565b620004d7620004ce82620004aa565b84845462000418565b825550505050565b600090565b620004ee620004df565b620004fb818484620004b4565b505050565b5b81811015620005235762000517600082620004e4565b60018101905062000501565b5050565b601f82111562000572576200053c81620003e6565b6200054784620003fb565b8101602085101562000557578190505b6200056f6200056685620003fb565b83018262000500565b50505b505050565b600082821c905092915050565b6000620005976000198460080262000577565b1980831691505092915050565b6000620005b2838362000584565b9150826002028217905092915050565b620005cd8262000377565b67ffffffffffffffff811115620005e957620005e862000184565b5b620005f58254620003b1565b6200060282828562000527565b600060209050601f8311600181146200063a576000841562000625578287015190505b620006318582620005a4565b865550620006a1565b601f1984166200064a86620003e6565b60005b8281101562000674578489015182556001820191506020850194506020810190506200064d565b8683101562000694578489015162000690601f89168262000584565b8355505b6001600288020188555050505b505050505050565b6134a580620006b96000396000f3fe608060405234801561001057600080fd5b506004361061014d5760003560e01c80638baecc21116100c3578063c1e037281161007c578063c1e0372814610388578063c87b56dd146103b8578063d29a0025146103e8578063e394bee914610404578063e985e9c514610420578063f2fde38b146104505761014d565b80638baecc21146102da5780638da5cb5b146102f657806395d89b4114610314578063a22cb46514610332578063a5c42ef11461034e578063b88d4fde1461036c5761014d565b8063102a294711610115578063102a29471461020857806323b872dd1461023857806342842e0e146102545780636352211e1461027057806370a08231146102a0578063715018a6146102d05761014d565b806301ffc9a71461015257806305b6cb4f1461018257806306fdde031461019e578063081812fc146101bc578063095ea7b3146101ec575b600080fd5b61016c60048036038101906101679190611ff5565b61046c565b604051610179919061203d565b60405180910390f35b61019c600480360381019061019791906120c7565b61054e565b005b6101a6610629565b6040516101b391906121b3565b60405180910390f35b6101d660048036038101906101d191906121d5565b6106bb565b6040516101e39190612243565b60405180910390f35b6102066004803603810190610201919061228a565b610701565b005b610222600480360381019061021d91906122ca565b610818565b60405161022f91906123b5565b60405180910390f35b610252600480360381019061024d91906123d7565b610924565b005b61026e600480360381019061026991906123d7565b610984565b005b61028a600480360381019061028591906121d5565b6109a4565b6040516102979190612243565b60405180910390f35b6102ba60048036038101906102b591906122ca565b610a55565b6040516102c79190612439565b60405180910390f35b6102d8610b0c565b005b6102f460048036038101906102ef91906121d5565b610b20565b005b6102fe610c76565b60405161030b9190612243565b60405180910390f35b61031c610ca0565b60405161032991906121b3565b60405180910390f35b61034c60048036038101906103479190612480565b610d32565b005b610356610d48565b6040516103639190612439565b60405180910390f35b610386600480360381019061038191906125f5565b610d52565b005b6103a2600480360381019061039d91906121d5565b610db4565b6040516103af9190612711565b60405180910390f35b6103d260048036038101906103cd91906121d5565b610ec9565b6040516103df91906121b3565b60405180910390f35b61040260048036038101906103fd91906121d5565b610f31565b005b61041e600480360381019061041991906127d1565b611041565b005b61043a60048036038101906104359190612812565b6110d1565b604051610447919061203d565b60405180910390f35b61046a600480360381019061046591906122ca565b611165565b005b60007f80ac58cd000000000000000000000000000000000000000000000000000000007bffffffffffffffffffffffffffffffffffffffffffffffffffffffff1916827bffffffffffffffffffffffffffffffffffffffffffffffffffffffff1916148061053757507f5b5e139f000000000000000000000000000000000000000000000000000000007bffffffffffffffffffffffffffffffffffffffffffffffffffffffff1916827bffffffffffffffffffffffffffffffffffffffffffffffffffffffff1916145b806105475750610546826111e8565b5b9050919050565b61055a33600754611252565b6040518060c001604052804281526020018481526020016001151581526020018381526020018260ff1681526020016000815250600860006007548152602001908152602001600020600082015181600001556020820151816001015560408201518160020160006101000a81548160ff0219169083151502179055506060820151816003015560808201518160040160006101000a81548160ff021916908360ff16021790555060a08201518160050155905050600160075461061e9190612881565b600781905550505050565b60606000805461063890612906565b80601f016020809104026020016040519081016040528092919081815260200182805461066490612906565b80156106b15780601f10610686576101008083540402835291602001916106b1565b820191906000526020600020905b81548152906001019060200180831161069457829003601f168201915b5050505050905090565b60006106c682611270565b6004600083815260200190815260200160002060009054906101000a900473ffffffffffffffffffffffffffffffffffffffff169050919050565b600061070c826109a4565b90508073ffffffffffffffffffffffffffffffffffffffff168373ffffffffffffffffffffffffffffffffffffffff160361077c576040517f08c379a0000000000000000000000000000000000000000000000000000000008152600401610773906129a9565b60405180910390fd5b8073ffffffffffffffffffffffffffffffffffffffff1661079b6112bb565b73ffffffffffffffffffffffffffffffffffffffff1614806107ca57506107c9816107c46112bb565b6110d1565b5b610809576040517f08c379a000000000000000000000000000000000000000000000000000000000815260040161080090612a3b565b60405180910390fd5b61081383836112c3565b505050565b606060008060009050600061082c85610a55565b67ffffffffffffffff811115610845576108446124ca565b5b6040519080825280602002602001820160405280156108735781602001602082028036833780820191505090505b509050600081510361088a5780935050505061091f565b600092505b600754831015610918578473ffffffffffffffffffffffffffffffffffffffff166108b9846109a4565b73ffffffffffffffffffffffffffffffffffffffff160361090457828183806108e190612a5b565b945060ff16815181106108f7576108f6612a84565b5b6020026020010181815250505b6001836109119190612881565b925061088f565b8093505050505b919050565b61093561092f6112bb565b8261137c565b610974576040517f08c379a000000000000000000000000000000000000000000000000000000000815260040161096b90612b25565b60405180910390fd5b61097f838383611411565b505050565b61099f83838360405180602001604052806000815250610d52565b505050565b6000806002600084815260200190815260200160002060009054906101000a900473ffffffffffffffffffffffffffffffffffffffff169050600073ffffffffffffffffffffffffffffffffffffffff168173ffffffffffffffffffffffffffffffffffffffff1603610a4c576040517f08c379a0000000000000000000000000000000000000000000000000000000008152600401610a4390612b91565b60405180910390fd5b80915050919050565b60008073ffffffffffffffffffffffffffffffffffffffff168273ffffffffffffffffffffffffffffffffffffffff1603610ac5576040517f08c379a0000000000000000000000000000000000000000000000000000000008152600401610abc90612c23565b60405180910390fd5b600360008373ffffffffffffffffffffffffffffffffffffffff1673ffffffffffffffffffffffffffffffffffffffff168152602001908152602001600020549050919050565b610b14611677565b610b1e60006116f5565b565b6008600082815260200190815260200160002060030154600860008381526020019081526020016000206005015442610b599190612c43565b11610b99576040517f08c379a0000000000000000000000000000000000000000000000000000000008152600401610b9090612cc3565b60405180910390fd5b60016008600083815260200190815260200160002060020160006101000a81548160ff02191690831515021790555060016008600083815260200190815260200160002060040160008282829054906101000a900460ff16610bfb9190612ce3565b92506101000a81548160ff021916908360ff16021790555060006008600083815260200190815260200160002060040160009054906101000a900460ff1660ff161015610c735760006008600083815260200190815260200160002060040160006101000a81548160ff021916908360ff1602179055505b50565b6000600660009054906101000a900473ffffffffffffffffffffffffffffffffffffffff16905090565b606060018054610caf90612906565b80601f0160208091040260200160405190810160405280929190818152602001828054610cdb90612906565b8015610d285780601f10610cfd57610100808354040283529160200191610d28565b820191906000526020600020905b815481529060010190602001808311610d0b57829003601f168201915b5050505050905090565b610d44610d3d6112bb565b83836117bb565b5050565b6000600754905090565b610d63610d5d6112bb565b8361137c565b610da2576040517f08c379a0000000000000000000000000000000000000000000000000000000008152600401610d9990612b25565b60405180910390fd5b610dae84848484611927565b50505050565b610dbc611f4e565b6007548210610e00576040517f08c379a0000000000000000000000000000000000000000000000000000000008152600401610df790612d63565b60405180910390fd5b6000821015610e44576040517f08c379a0000000000000000000000000000000000000000000000000000000008152600401610e3b90612dcf565b60405180910390fd5b600860008381526020019081526020016000206040518060c001604052908160008201548152602001600182015481526020016002820160009054906101000a900460ff16151515158152602001600382015481526020016004820160009054906101000a900460ff1660ff1660ff1681526020016005820154815250509050919050565b6060610ed482611270565b6000610ede611983565b90506000815111610efe5760405180602001604052806000815250610f29565b80610f088461199a565b604051602001610f19929190612e2b565b6040516020818303038152906040525b915050919050565b600860008281526020019081526020016000206040518060c001604052908160008201548152602001600182015481526020016002820160009054906101000a900460ff16151515158152602001600382015481526020016004820160009054906101000a900460ff1660ff1660ff1681526020016005820154815250508060400151610ff3576040517f08c379a0000000000000000000000000000000000000000000000000000000008152600401610fea90612e9b565b60405180910390fd5b60006008600084815260200190815260200160002060020160006101000a81548160ff0219169083151502179055504260086000848152602001908152602001600020600501819055505050565b818060400151611086576040517f08c379a000000000000000000000000000000000000000000000000000000000815260040161107d90612e9b565b60405180910390fd5b8180604001516110cb576040517f08c379a00000000000000000000000000000000000000000000000000000000081526004016110c290612e9b565b60405180910390fd5b50505050565b6000600560008473ffffffffffffffffffffffffffffffffffffffff1673ffffffffffffffffffffffffffffffffffffffff16815260200190815260200160002060008373ffffffffffffffffffffffffffffffffffffffff1673ffffffffffffffffffffffffffffffffffffffff16815260200190815260200160002060009054906101000a900460ff16905092915050565b61116d611677565b600073ffffffffffffffffffffffffffffffffffffffff168173ffffffffffffffffffffffffffffffffffffffff16036111dc576040517f08c379a00000000000000000000000000000000000000000000000000000000081526004016111d390612f2d565b60405180910390fd5b6111e5816116f5565b50565b60007f01ffc9a7000000000000000000000000000000000000000000000000000000007bffffffffffffffffffffffffffffffffffffffffffffffffffffffff1916827bffffffffffffffffffffffffffffffffffffffffffffffffffffffff1916149050919050565b61126c828260405180602001604052806000815250611afa565b5050565b61127981611b55565b6112b8576040517f08c379a00000000000000000000000000000000000000000000000000000000081526004016112af90612b91565b60405180910390fd5b50565b600033905090565b816004600083815260200190815260200160002060006101000a81548173ffffffffffffffffffffffffffffffffffffffff021916908373ffffffffffffffffffffffffffffffffffffffff160217905550808273ffffffffffffffffffffffffffffffffffffffff16611336836109a4565b73ffffffffffffffffffffffffffffffffffffffff167f8c5be1e5ebec7d5bd14f71427d1e84f3dd0314c0f7b2291e5b200ac8c7c3b92560405160405180910390a45050565b600080611388836109a4565b90508073ffffffffffffffffffffffffffffffffffffffff168473ffffffffffffffffffffffffffffffffffffffff1614806113ca57506113c981856110d1565b5b8061140857508373ffffffffffffffffffffffffffffffffffffffff166113f0846106bb565b73ffffffffffffffffffffffffffffffffffffffff16145b91505092915050565b8273ffffffffffffffffffffffffffffffffffffffff16611431826109a4565b73ffffffffffffffffffffffffffffffffffffffff1614611487576040517f08c379a000000000000000000000000000000000000000000000000000000000815260040161147e90612fbf565b60405180910390fd5b600073ffffffffffffffffffffffffffffffffffffffff168273ffffffffffffffffffffffffffffffffffffffff16036114f6576040517f08c379a00000000000000000000000000000000000000000000000000000000081526004016114ed90613051565b60405180910390fd5b611501838383611bc1565b61150c6000826112c3565b6001600360008573ffffffffffffffffffffffffffffffffffffffff1673ffffffffffffffffffffffffffffffffffffffff168152602001908152602001600020600082825461155c9190612c43565b925050819055506001600360008473ffffffffffffffffffffffffffffffffffffffff1673ffffffffffffffffffffffffffffffffffffffff16815260200190815260200160002060008282546115b39190612881565b92505081905550816002600083815260200190815260200160002060006101000a81548173ffffffffffffffffffffffffffffffffffffffff021916908373ffffffffffffffffffffffffffffffffffffffff160217905550808273ffffffffffffffffffffffffffffffffffffffff168473ffffffffffffffffffffffffffffffffffffffff167fddf252ad1be2c89b69c2b068fc378daa952ba7f163c4a11628f55a4df523b3ef60405160405180910390a4611672838383611bc6565b505050565b61167f6112bb565b73ffffffffffffffffffffffffffffffffffffffff1661169d610c76565b73ffffffffffffffffffffffffffffffffffffffff16146116f3576040517f08c379a00000000000000000000000000000000000000000000000000000000081526004016116ea906130bd565b60405180910390fd5b565b6000600660009054906101000a900473ffffffffffffffffffffffffffffffffffffffff16905081600660006101000a81548173ffffffffffffffffffffffffffffffffffffffff021916908373ffffffffffffffffffffffffffffffffffffffff1602179055508173ffffffffffffffffffffffffffffffffffffffff168173ffffffffffffffffffffffffffffffffffffffff167f8be0079c531659141344cd1fd0a4f28419497f9722a3daafe3b4186f6b6457e060405160405180910390a35050565b8173ffffffffffffffffffffffffffffffffffffffff168373ffffffffffffffffffffffffffffffffffffffff1603611829576040517f08c379a000000000000000000000000000000000000000000000000000000000815260040161182090613129565b60405180910390fd5b80600560008573ffffffffffffffffffffffffffffffffffffffff1673ffffffffffffffffffffffffffffffffffffffff16815260200190815260200160002060008473ffffffffffffffffffffffffffffffffffffffff1673ffffffffffffffffffffffffffffffffffffffff16815260200190815260200160002060006101000a81548160ff0219169083151502179055508173ffffffffffffffffffffffffffffffffffffffff168373ffffffffffffffffffffffffffffffffffffffff167f17307eab39ab6107e8899845ad3d59bd9653f200f220920489ca2b5937696c318360405161191a919061203d565b60405180910390a3505050565b611932848484611411565b61193e84848484611bcb565b61197d576040517f08c379a0000000000000000000000000000000000000000000000000000000008152600401611974906131bb565b60405180910390fd5b50505050565b606060405180602001604052806000815250905090565b6060600082036119e1576040518060400160405280600181526020017f30000000000000000000000000000000000000000000000000000000000000008152509050611af5565b600082905060005b60008214611a135780806119fc906131db565b915050600a82611a0c9190613252565b91506119e9565b60008167ffffffffffffffff811115611a2f57611a2e6124ca565b5b6040519080825280601f01601f191660200182016040528015611a615781602001600182028036833780820191505090505b5090505b60008514611aee57600182611a7a9190612c43565b9150600a85611a899190613283565b6030611a959190612881565b60f81b818381518110611aab57611aaa612a84565b5b60200101907effffffffffffffffffffffffffffffffffffffffffffffffffffffffffffff1916908160001a905350600a85611ae79190613252565b9450611a65565b8093505050505b919050565b611b048383611d52565b611b116000848484611bcb565b611b50576040517f08c379a0000000000000000000000000000000000000000000000000000000008152600401611b47906131bb565b60405180910390fd5b505050565b60008073ffffffffffffffffffffffffffffffffffffffff166002600084815260200190815260200160002060009054906101000a900473ffffffffffffffffffffffffffffffffffffffff1673ffffffffffffffffffffffffffffffffffffffff1614159050919050565b505050565b505050565b6000611bec8473ffffffffffffffffffffffffffffffffffffffff16611f2b565b15611d45578373ffffffffffffffffffffffffffffffffffffffff1663150b7a02611c156112bb565b8786866040518563ffffffff1660e01b8152600401611c379493929190613309565b6020604051808303816000875af1925050508015611c7357506040513d601f19601f82011682018060405250810190611c70919061336a565b60015b611cf5573d8060008114611ca3576040519150601f19603f3d011682016040523d82523d6000602084013e611ca8565b606091505b506000815103611ced576040517f08c379a0000000000000000000000000000000000000000000000000000000008152600401611ce4906131bb565b60405180910390fd5b805181602001fd5b63150b7a0260e01b7bffffffffffffffffffffffffffffffffffffffffffffffffffffffff1916817bffffffffffffffffffffffffffffffffffffffffffffffffffffffff191614915050611d4a565b600190505b949350505050565b600073ffffffffffffffffffffffffffffffffffffffff168273ffffffffffffffffffffffffffffffffffffffff1603611dc1576040517f08c379a0000000000000000000000000000000000000000000000000000000008152600401611db8906133e3565b60405180910390fd5b611dca81611b55565b15611e0a576040517f08c379a0000000000000000000000000000000000000000000000000000000008152600401611e019061344f565b60405180910390fd5b611e1660008383611bc1565b6001600360008473ffffffffffffffffffffffffffffffffffffffff1673ffffffffffffffffffffffffffffffffffffffff1681526020019081526020016000206000828254611e669190612881565b92505081905550816002600083815260200190815260200160002060006101000a81548173ffffffffffffffffffffffffffffffffffffffff021916908373ffffffffffffffffffffffffffffffffffffffff160217905550808273ffffffffffffffffffffffffffffffffffffffff16600073ffffffffffffffffffffffffffffffffffffffff167fddf252ad1be2c89b69c2b068fc378daa952ba7f163c4a11628f55a4df523b3ef60405160405180910390a4611f2760008383611bc6565b5050565b6000808273ffffffffffffffffffffffffffffffffffffffff163b119050919050565b6040518060c00160405280600081526020016000815260200160001515815260200160008152602001600060ff168152602001600081525090565b6000604051905090565b600080fd5b600080fd5b60007fffffffff0000000000000000000000000000000000000000000000000000000082169050919050565b611fd281611f9d565b8114611fdd57600080fd5b50565b600081359050611fef81611fc9565b92915050565b60006020828403121561200b5761200a611f93565b5b600061201984828501611fe0565b91505092915050565b60008115159050919050565b61203781612022565b82525050565b6000602082019050612052600083018461202e565b92915050565b6000819050919050565b61206b81612058565b811461207657600080fd5b50565b60008135905061208881612062565b92915050565b600060ff82169050919050565b6120a48161208e565b81146120af57600080fd5b50565b6000813590506120c18161209b565b92915050565b6000806000606084860312156120e0576120df611f93565b5b60006120ee86828701612079565b93505060206120ff86828701612079565b9250506040612110868287016120b2565b9150509250925092565b600081519050919050565b600082825260208201905092915050565b60005b83811015612154578082015181840152602081019050612139565b83811115612163576000848401525b50505050565b6000601f19601f8301169050919050565b60006121858261211a565b61218f8185612125565b935061219f818560208601612136565b6121a881612169565b840191505092915050565b600060208201905081810360008301526121cd818461217a565b905092915050565b6000602082840312156121eb576121ea611f93565b5b60006121f984828501612079565b91505092915050565b600073ffffffffffffffffffffffffffffffffffffffff82169050919050565b600061222d82612202565b9050919050565b61223d81612222565b82525050565b60006020820190506122586000830184612234565b92915050565b61226781612222565b811461227257600080fd5b50565b6000813590506122848161225e565b92915050565b600080604083850312156122a1576122a0611f93565b5b60006122af85828601612275565b92505060206122c085828601612079565b9150509250929050565b6000602082840312156122e0576122df611f93565b5b60006122ee84828501612275565b91505092915050565b600081519050919050565b600082825260208201905092915050565b6000819050602082019050919050565b61232c81612058565b82525050565b600061233e8383612323565b60208301905092915050565b6000602082019050919050565b6000612362826122f7565b61236c8185612302565b935061237783612313565b8060005b838110156123a857815161238f8882612332565b975061239a8361234a565b92505060018101905061237b565b5085935050505092915050565b600060208201905081810360008301526123cf8184612357565b905092915050565b6000806000606084860312156123f0576123ef611f93565b5b60006123fe86828701612275565b935050602061240f86828701612275565b925050604061242086828701612079565b9150509250925092565b61243381612058565b82525050565b600060208201905061244e600083018461242a565b92915050565b61245d81612022565b811461246857600080fd5b50565b60008135905061247a81612454565b92915050565b6000806040838503121561249757612496611f93565b5b60006124a585828601612275565b92505060206124b68582860161246b565b9150509250929050565b600080fd5b600080fd5b7f4e487b7100000000000000000000000000000000000000000000000000000000600052604160045260246000fd5b61250282612169565b810181811067ffffffffffffffff82111715612521576125206124ca565b5b80604052505050565b6000612534611f89565b905061254082826124f9565b919050565b600067ffffffffffffffff8211156125605761255f6124ca565b5b61256982612169565b9050602081019050919050565b82818337600083830152505050565b600061259861259384612545565b61252a565b9050828152602081018484840111156125b4576125b36124c5565b5b6125bf848285612576565b509392505050565b600082601f8301126125dc576125db6124c0565b5b81356125ec848260208601612585565b91505092915050565b6000806000806080858703121561260f5761260e611f93565b5b600061261d87828801612275565b945050602061262e87828801612275565b935050604061263f87828801612079565b925050606085013567ffffffffffffffff8111156126605761265f611f98565b5b61266c878288016125c7565b91505092959194509250565b61268181612022565b82525050565b6126908161208e565b82525050565b60c0820160008201516126ac6000850182612323565b5060208201516126bf6020850182612323565b5060408201516126d26040850182612678565b5060608201516126e56060850182612323565b5060808201516126f86080850182612687565b5060a082015161270b60a0850182612323565b50505050565b600060c0820190506127266000830184612696565b92915050565b600080fd5b600060c082840312156127475761274661272c565b5b61275160c061252a565b9050600061276184828501612079565b600083015250602061277584828501612079565b60208301525060406127898482850161246b565b604083015250606061279d84828501612079565b60608301525060806127b1848285016120b2565b60808301525060a06127c584828501612079565b60a08301525092915050565b60008061018083850312156127e9576127e8611f93565b5b60006127f785828601612731565b92505060c061280885828601612731565b9150509250929050565b6000806040838503121561282957612828611f93565b5b600061283785828601612275565b925050602061284885828601612275565b9150509250929050565b7f4e487b7100000000000000000000000000000000000000000000000000000000600052601160045260246000fd5b600061288c82612058565b915061289783612058565b9250827fffffffffffffffffffffffffffffffffffffffffffffffffffffffffffffffff038211156128cc576128cb612852565b5b828201905092915050565b7f4e487b7100000000000000000000000000000000000000000000000000000000600052602260045260246000fd5b6000600282049050600182168061291e57607f821691505b602082108103612931576129306128d7565b5b50919050565b7f4552433732313a20617070726f76616c20746f2063757272656e74206f776e6560008201527f7200000000000000000000000000000000000000000000000000000000000000602082015250565b6000612993602183612125565b915061299e82612937565b604082019050919050565b600060208201905081810360008301526129c281612986565b9050919050565b7f4552433732313a20617070726f76652063616c6c6572206973206e6f7420746f60008201527f6b656e206f776e6572206e6f7220617070726f76656420666f7220616c6c0000602082015250565b6000612a25603e83612125565b9150612a30826129c9565b604082019050919050565b60006020820190508181036000830152612a5481612a18565b9050919050565b6000612a668261208e565b915060ff8203612a7957612a78612852565b5b600182019050919050565b7f4e487b7100000000000000000000000000000000000000000000000000000000600052603260045260246000fd5b7f4552433732313a2063616c6c6572206973206e6f7420746f6b656e206f776e6560008201527f72206e6f7220617070726f766564000000000000000000000000000000000000602082015250565b6000612b0f602e83612125565b9150612b1a82612ab3565b604082019050919050565b60006020820190508181036000830152612b3e81612b02565b9050919050565b7f4552433732313a20696e76616c696420746f6b656e2049440000000000000000600082015250565b6000612b7b601883612125565b9150612b8682612b45565b602082019050919050565b60006020820190508181036000830152612baa81612b6e565b9050919050565b7f4552433732313a2061646472657373207a65726f206973206e6f74206120766160008201527f6c6964206f776e65720000000000000000000000000000000000000000000000602082015250565b6000612c0d602983612125565b9150612c1882612bb1565b604082019050919050565b60006020820190508181036000830152612c3c81612c00565b9050919050565b6000612c4e82612058565b9150612c5983612058565b925082821015612c6c57612c6b612852565b5b828203905092915050565b7f46696768746572206e6f7420726561647920746f207265766976650000000000600082015250565b6000612cad601b83612125565b9150612cb882612c77565b602082019050919050565b60006020820190508181036000830152612cdc81612ca0565b9050919050565b6000612cee8261208e565b9150612cf98361208e565b925082821015612d0c57612d0b612852565b5b828203905092915050565b7f696420746f6f206c617267650000000000000000000000000000000000000000600082015250565b6000612d4d600c83612125565b9150612d5882612d17565b602082019050919050565b60006020820190508181036000830152612d7c81612d40565b9050919050565b7f696420746f6f20736d616c6c0000000000000000000000000000000000000000600082015250565b6000612db9600c83612125565b9150612dc482612d83565b602082019050919050565b60006020820190508181036000830152612de881612dac565b9050919050565b600081905092915050565b6000612e058261211a565b612e0f8185612def565b9350612e1f818560208601612136565b80840191505092915050565b6000612e378285612dfa565b9150612e438284612dfa565b91508190509392505050565b7f4669676874657220697320646561640000000000000000000000000000000000600082015250565b6000612e85600f83612125565b9150612e9082612e4f565b602082019050919050565b60006020820190508181036000830152612eb481612e78565b9050919050565b7f4f776e61626c653a206e6577206f776e657220697320746865207a65726f206160008201527f6464726573730000000000000000000000000000000000000000000000000000602082015250565b6000612f17602683612125565b9150612f2282612ebb565b604082019050919050565b60006020820190508181036000830152612f4681612f0a565b9050919050565b7f4552433732313a207472616e736665722066726f6d20696e636f72726563742060008201527f6f776e6572000000000000000000000000000000000000000000000000000000602082015250565b6000612fa9602583612125565b9150612fb482612f4d565b604082019050919050565b60006020820190508181036000830152612fd881612f9c565b9050919050565b7f4552433732313a207472616e7366657220746f20746865207a65726f2061646460008201527f7265737300000000000000000000000000000000000000000000000000000000602082015250565b600061303b602483612125565b915061304682612fdf565b604082019050919050565b6000602082019050818103600083015261306a8161302e565b9050919050565b7f4f776e61626c653a2063616c6c6572206973206e6f7420746865206f776e6572600082015250565b60006130a7602083612125565b91506130b282613071565b602082019050919050565b600060208201905081810360008301526130d68161309a565b9050919050565b7f4552433732313a20617070726f766520746f2063616c6c657200000000000000600082015250565b6000613113601983612125565b915061311e826130dd565b602082019050919050565b6000602082019050818103600083015261314281613106565b9050919050565b7f4552433732313a207472616e7366657220746f206e6f6e20455243373231526560008201527f63656976657220696d706c656d656e7465720000000000000000000000000000602082015250565b60006131a5603283612125565b91506131b082613149565b604082019050919050565b600060208201905081810360008301526131d481613198565b9050919050565b60006131e682612058565b91507fffffffffffffffffffffffffffffffffffffffffffffffffffffffffffffffff820361321857613217612852565b5b600182019050919050565b7f4e487b7100000000000000000000000000000000000000000000000000000000600052601260045260246000fd5b600061325d82612058565b915061326883612058565b92508261327857613277613223565b5b828204905092915050565b600061328e82612058565b915061329983612058565b9250826132a9576132a8613223565b5b828206905092915050565b600081519050919050565b600082825260208201905092915050565b60006132db826132b4565b6132e581856132bf565b93506132f5818560208601612136565b6132fe81612169565b840191505092915050565b600060808201905061331e6000830187612234565b61332b6020830186612234565b613338604083018561242a565b818103606083015261334a81846132d0565b905095945050505050565b60008151905061336481611fc9565b92915050565b6000602082840312156133805761337f611f93565b5b600061338e84828501613355565b91505092915050565b7f4552433732313a206d696e7420746f20746865207a65726f2061646472657373600082015250565b60006133cd602083612125565b91506133d882613397565b602082019050919050565b600060208201905081810360008301526133fc816133c0565b9050919050565b7f4552433732313a20746f6b656e20616c7265616479206d696e74656400000000600082015250565b6000613439601c83612125565b915061344482613403565b602082019050919050565b600060208201905081810360008301526134688161342c565b905091905056fea2646970667358221220ebad9a1f4eadf11b7dd2a72d42785cf2e70d44468f7f3d6fb4a451493710b5ff64736f6c634300080f0033",
  "immutableReferences": {},
  "source": "pragma solidity ^0.8.0;\n\nimport \"../node_modules/@openzeppelin/contracts/token/ERC721/ERC721.sol\";\nimport \"../node_modules/@openzeppelin/contracts/access/Ownable.sol\";\n\n\n\ncontract Token is ERC721, Ownable {\n\n    struct Fighter {\n        uint256 lastCollect;\n        uint256 maxUpdateTime;\n        bool alive;\n        uint256 recoverTime; //amount of time before fighter comes back to life\n        uint8 power; //power determines number of free gems \n        uint256 deathTime; //time that this died.\n    }\n\n    uint256 tokenId; //default to zero\n\n    mapping (uint256=>Fighter) private _fighterDetails;\n\n    constructor(string memory name, string memory symbol) ERC721(name,symbol) {\n        //\n    }\n    function tokenID() public view returns(uint256) {\n        return tokenId;\n    }\n    \n    function mint(uint256 maxUpdateTime,uint256 recoverTime,uint8 power) public {\n        //block.timestamp gives the time, but be careful since it can be manipulated\n        //by around 15 seconds\n        _safeMint(msg.sender, tokenId);\n        _fighterDetails[tokenId] = Fighter(block.timestamp,maxUpdateTime,true,recoverTime,power,0);\n        tokenId= tokenId + 1;\n        \n        \n\n\n    }\n    //returns fighter from tokenID\n    function getTokenDetails(uint256 id) view public returns (Fighter memory)  {\n        require (id < tokenId,\"id too large\");\n        require (id >=0,\"id too small\");\n        return _fighterDetails[id];\n\n    }\n    //fight\n    function fight(Fighter memory fighter1, Fighter memory fighter2) public isAlive(fighter1) isAlive(fighter2) { \n        //both fighters must be alive to fight\n        //some code that makes the two things fight against each other\n\n\n    }\n    function kill(uint256 id) public isAlive(_fighterDetails[id]) {\n        _fighterDetails[id].alive = false;\n        _fighterDetails[id].deathTime = block.timestamp; //set death time to now\n    }\n    function revive(uint256 id) public {\n        require(block.timestamp- _fighterDetails[id].deathTime > _fighterDetails[id].recoverTime, \"Fighter not ready to revive\");\n        _fighterDetails[id].alive = true;\n        //send back to life. \n        _fighterDetails[id].power -= 1; //weak power\n        if(_fighterDetails[id].power < 0) {\n            _fighterDetails[id].power = 0; //can't be worse than 0. \n        }\n       \n\n    }\n    modifier isAlive(Fighter memory fighter) {\n        require(fighter.alive, \"Fighter is dead\");\n        _;\n    }\n    //gets all the tokens a given user owns\n    function getAllTokensFromUser(address user) public view returns (uint256[] memory) {\n        uint256 i;\n        uint8 j =0;\n        uint256[] memory res = new uint256[](balanceOf(user));\n        if(res.length == 0) {\n            return res; //\n        }\n        for (i=0; i < tokenId; i+=1){\n            if(ownerOf(i) == user) {\n                res[j++] = i;\n                \n                \n            }\n        }\n        return res;\n    }\n   \n}",
  "sourcePath": "/Users/cbriggs/Desktop/SolidityPractice/contracts/Token.sol",
  "compiler": {
    "name": "solc",
    "version": "0.8.15+commit.e14f2714.Emscripten.clang"
  },
  "schemaVersion": "3.4.8",
  "updatedAt": "2022-08-10T15:37:40.376Z",
  "devdoc": {
    "kind": "dev",
    "methods": {
      "approve(address,uint256)": {
        "details": "See {IERC721-approve}."
      },
      "balanceOf(address)": {
        "details": "See {IERC721-balanceOf}."
      },
      "getApproved(uint256)": {
        "details": "See {IERC721-getApproved}."
      },
      "isApprovedForAll(address,address)": {
        "details": "See {IERC721-isApprovedForAll}."
      },
      "name()": {
        "details": "See {IERC721Metadata-name}."
      },
      "owner()": {
        "details": "Returns the address of the current owner."
      },
      "ownerOf(uint256)": {
        "details": "See {IERC721-ownerOf}."
      },
      "renounceOwnership()": {
        "details": "Leaves the contract without owner. It will not be possible to call `onlyOwner` functions anymore. Can only be called by the current owner. NOTE: Renouncing ownership will leave the contract without an owner, thereby removing any functionality that is only available to the owner."
      },
      "safeTransferFrom(address,address,uint256)": {
        "details": "See {IERC721-safeTransferFrom}."
      },
      "safeTransferFrom(address,address,uint256,bytes)": {
        "details": "See {IERC721-safeTransferFrom}."
      },
      "setApprovalForAll(address,bool)": {
        "details": "See {IERC721-setApprovalForAll}."
      },
      "supportsInterface(bytes4)": {
        "details": "See {IERC165-supportsInterface}."
      },
      "symbol()": {
        "details": "See {IERC721Metadata-symbol}."
      },
      "tokenURI(uint256)": {
        "details": "See {IERC721Metadata-tokenURI}."
      },
      "transferFrom(address,address,uint256)": {
        "details": "See {IERC721-transferFrom}."
      },
      "transferOwnership(address)": {
        "details": "Transfers ownership of the contract to a new account (`newOwner`). Can only be called by the current owner."
      }
    },
    "version": 1
  },
  "userdoc": {
    "kind": "user",
    "methods": {},
    "version": 1
  }
}